:100000000C94FB060C9418070C9418070C94180712
:100010000C9418070C9418070C9418070C941807E4
:100020000C9418070C9418070C94202B0C94F42BA8
:100030000C9478250C9418070C9418070C94180746
:100040000C9418070C9418070C9418070C941807B4
:100050000C9418070C94FF250C9418070C9418079F
:100060000C9418070C9418070C9418070C94180794
:100070000C9418070C9418070C9418070C94180784
:100080000C9418070C9418070C9418070C94180774
:100090000C9418070C9418070C9418070C94180764
:1000A0000C9418070C9418070C9418072B001400D4
:1000B0001A00080015001700E100040016000700F0
:1000C00009000A00E0001D001B00060019000500E1
:1000D0001C0018000C00120013002A000B000D0079
:1000E0000E000F00330034001100100036003700FE
:1000F00038002800E26302512C000151E743000060
:1001000001001E001F00200021002200010000004D
:1001100000000000000000000100000000000000DE
:1001200000000000230024002500260027004C00CA
:100130005000510052004F00350035024E004B0078
:10014000B600B700B500B4000100010000000100D6
:100150000100000001001E021F02200221022202F3
:10016000010000000000000000000000010000008D
:1001700000000000000000002302240225022D02DE
:1001800031024C00000000000000000031000000BF
:10019000000000000000000000000000010001005D
:1001A0002A000100010000002900C35C00000000DB
:1001B000000000003A003B003C003D003E003F00D4
:1001C00040004100420043004400450000000000A0
:1001D00000000000260227022D0057002E0000001C
:1001E0002F023002A800AA00A90000002F00300052
:1001F00001000100000001000100000044454255DB
:10020000473A2064697361626C65642E0A00444554
:100210004255473A20656E61626C65642E0A000A99
:100220000025303258006C65645F7461736B3A204E
:10023000004F6E6573686F743A2061637469766508
:100240003A2025640A000A0025303862003A20006E
:1002500025303258000A722F632030313233343562
:1002600036370A007267626C696768742074696D5A
:1002700065722064697361626C652E0A0072676240
:100280006C696768742074696D657220656E61625F
:100290006C65642E0A007267626C6967687420730B
:1002A000657420687376205B4E4F454550524F4D24
:1002B0005D3A2025752C25752C25750A007267621C
:1002C0006C696768742073657420687376205B4579
:1002D0004550524F4D5D3A2025752C25752C2575BE
:1002E0000A007267626C69676874207261696E6285
:1002F0006F7720736574206873763A2025642C2507
:10030000642C25642C25750A007267626C69676825
:10031000742064697361626C65205B4E4F45455083
:10032000524F4D5D3A207267626C696768745F6313
:100330006F6E6669672E656E61626C65203D202573
:10034000750A007267626C6967687420646973611A
:10035000626C65205B454550524F4D5D3A20726797
:10036000626C696768745F636F6E6669672E656E3D
:1003700061626C65203D2025750A007267626C69B8
:1003800067687420656E61626C65205B4E4F454501
:1003900050524F4D5D3A207267626C696768745FB6
:1003A000636F6E6669672E656E61626C65203D20C5
:1003B00025750A007267626C6967687420656E61F2
:1003C000626C65205B454550524F4D5D3A20726727
:1003D000626C696768745F636F6E6669672E656ECD
:1003E00061626C65203D2025750A007267626C6948
:1003F00067687420746F67676C65205B4545505271
:100400004F4D5D3A207267626C696768745F636F15
:100410006E6669672E656E61626C65203D2025758C
:100420000A007267626C69676874206D6F6465208A
:100430005B4E4F454550524F4D5D3A2025750A00A1
:100440007267626C69676874206D6F6465205B45D4
:100450004550524F4D5D3A2025750A007267626C17
:10046000696768745F696E6974207267626C696736
:1004700068745F636F6E6669672E6D6F6465203D9B
:1004800020302E2057726974652064656661756C32
:10049000742076616C75657320746F2045455052E9
:1004A0004F4D2E0A007267626C696768745F696EEF
:1004B0006974206565636F6E666967206973206E75
:1004C0006F7420656E61626C65642E0A00726762EB
:1004D0006C696768745F696E6974207374617274A3
:1004E000210A007267626C696768745F696E69747B
:1004F0002063616C6C65642E0A007267626C6967C8
:1005000068745F636F6E6669672E737065656420DB
:100510003D2025640A007267626C696768745F63D6
:100520006F6E6669672E76616C203D2025640A0037
:100530007267626C696768745F636F6E6669672E65
:10054000736174203D2025640A007267626C6967DC
:1005500068745F636F6E6669672E687565203D20FD
:1005600025640A007267686C696768745F636F6E00
:100570006669672E6D6F6465203D2025640A0072F0
:1005800067626C696768745F636F6E6669672E6522
:100590006E61626C65203D2025640A007267626CA2
:1005A000696768745F636F6E66696720454550527E
:1005B0004F4D3A0A0000047F3F1F64321464321426
:1005C000783C1E1E140A052223252628292A2C2DB4
:1005D0002F3032333536383A3B3D3E404243454773
:1005E000494A4C4E5051535557595A5C5E606264AB
:1005F0006668696B6D6F71737577797B7D7F8183B9
:100600008587898A8C8E90929496989A9C9E9FA1B9
:10061000A3A5A7A8AAACAEAFB1B3B4B6B8B9BBBCDA
:10062000BEBFC1C2C3C5C6C7C9CACBCCCDCED0D14F
:10063000D2D2D3D4D5D6D7D7D8D9D9DADADBDBDB47
:10064000DCDCDCDCDCDDDDDDDDDCDCDCDCDCDBDBE8
:10065000DBDADAD9D9D8D7D7D6D5D4D3D2D2D1D03C
:10066000CECDCCCBCAC9C7C6C5C3C2C1BFBEBCBB39
:10067000B9B8B6B4B3B1AFAEACAAA8A7A5A3A19FB1
:100680009E9C9A98969492908E8C8A898785838175
:100690007F7D7B79777573716F6D6B696866646256
:1006A000605E5C5A5957555351504E4C4A49474524
:1006B0004342403E3D3B3A3836353332302F2D2CC5
:1006C0002A292826252322FFAA7F5540000101015F
:1006D00001010101010102020202020202020203FF
:1006E00003030303030303040404040404040505CF
:1006F0000505050606060606070707070708080892
:1007000008090909090A0A0A0B0B0B0C0C0C0D0D40
:100710000D0E0E0E0F0F0F101011111112121313D8
:100720001414151516161717181819191A1A1B1B51
:100730001C1D1D1E1E1F20202122222324242526AD
:1007400026272829292A2B2C2D2D2E2F30313232E5
:10075000333435363738393A3B3C3D3E3F404142F1
:10076000434445464748494A4C4D4E4F50515354D7
:10077000555658595A5B5D5E5F616264656668698B
:100780006B6C6D6F7072737577787A7B7D7E80820B
:10079000838587888A8C8E8F91939596989A9C9E54
:1007A000A0A2A3A5A7A9ABADAFB1B3B5B7BABCBE64
:1007B000C0C2C4C6C9CBCDCFD1D4D6D8DBDDDFE231
:1007C000E4E7E9EBEEF0F3F5F8FAFDFF3F00433E16
:1007D00020004C25640A000A092D205374617475A9
:1007E00073202D0A686F73745F6B6579626F617235
:1007F000645F6C65647328293A20253032580A6B8F
:100800006579626F6172645F70726F746F636F6C31
:100810003A20253032580A6B6579626F6172645FE5
:1008200069646C653A20253032580A74696D6572C6
:100830005F72656164333228293A202530386C585C
:100840000A000A092D2056657273696F6E202D0A01
:100850005649443A20307837383037286774697001
:100860007329205049443A20307844434342287247
:10087000657669756E67343129205645523A2030C5
:1008800078303030310A4255494C443A20202841D2
:1008900075672020312032303232290A4F505449B6
:1008A0004F4E533A204C5546412045585452414BE7
:1008B000455920434F4E534F4C4520434F4D4D41DA
:1008C0004E4420343039360A4743433A20382E33D9
:1008D0002E30204156522D4C4942433A20322E3080
:1008E0002E30204156525F415243483A2061767281
:1008F000350A000A092D20436F6E736F6C65202D39
:100900000A4553432F713A09717569740A000A093F
:100910002D204D61676963202D0A443A09446562C0
:100920007567204D65737361676520546F67676CE9
:10093000650A583A094D6174726978204465627598
:1009400067204D6F646520546F67676C65202D20AC
:1009500053686F77206B6579707265737365732068
:10096000696E206D617472697820677269640A4BE0
:100970003A094B6579626F617264204465627567FC
:1009800020546F67676C65202D2053686F77206B4C
:1009900065797072657373207265706F72740A4D39
:1009A0003A094465627567204D6F75736520546F11
:1009B00067676C650A563A0956657273696F6E0A05
:1009C000533A095374617475730A433A0941637465
:1009D000697661746520436F6E736F6C65204D6F2F
:1009E00064650A46312D4631303A0953776974639C
:1009F0006820746F204C6179657220302D39202871
:100A0000463130203D204C30290A302D393A0953E7
:100A1000776974636820746F204C61796572203047
:100A20002D390A47524156453A095377697463682C
:100A300020746F204C6179657220302028616C74BD
:100A400065726E617465290A423A094A756D7020B3
:100A5000746F20426F6F746C6F616465720A4553E6
:100A6000433A094A756D7020746F20426F6F746C41
:100A70006F616465722028616C7465726E61746563
:100A8000290A453A095072696E7420454550524F03
:100A90004D2053657474696E67730A425350414325
:100AA000453A09436C65617220454550524F4D0AE5
:100AB000006B65796D61705F636F6E6669672E723A
:100AC00061773A20253032580A2E737761705F6360
:100AD0006F6E74726F6C5F636170736C6F636B3A8F
:100AE0002025750A2E636170736C6F636B5F746F82
:100AF0005F636F6E74726F6C3A2025750A2E737780
:100B000061705F6C63746C5F6C6775693A20257502
:100B10000A2E737761705F7263746C5F72677569B8
:100B20003A2025750A2E737761705F6C616C745F73
:100B30006C6775693A2025750A2E737761705F724C
:100B4000616C745F726775693A2025750A2E6E6F45
:100B50005F6775693A2025750A2E737761705F6744
:100B6000726176655F6573633A2025750A2E737727
:100B700061705F6261636B736C6173685F62616314
:100B80006B73706163653A2025750A2E6E6B726F08
:100B90003A2025750A0064656275675F636F6E664B
:100BA00069672E7261773A20253032580A2E656EB9
:100BB00061626C653A2025750A2E6D6174726978E0
:100BC0003A2025750A2E6B6579626F6172643A204E
:100BD00025750A2E6D6F7573653A2025750A0065B7
:100BE00065636F6E6669673A0A64656661756C7401
:100BF0005F6C617965723A2025750A003F000A6DC5
:100C00006F7573653A206F66660A000A6D6F7573BB
:100C1000653A206F6E0A000A6B6579626F617264D3
:100C20003A206F66660A000A6B6579626F617264CA
:100C30003A206F6E0A000A6D61747269783A206F0B
:100C400066660A000A6D61747269783A206F6E0AEE
:100C5000000A64656275673A206F66660A000A6476
:100C6000656275673A206F6E0A000A0A4A756D70F0
:100C7000696E6720746F20626F6F746C6F6164655A
:100C8000722E2E2E2000433E2000436C6561726957
:100C90006E6720454550524F4D0A000A00253032FC
:100CA0005820006B6579626F6172645F7265706F66
:100CB00072743A20005B735D005B575D005B535DAF
:100CC000005B525D005B445D005B435D001403729A
:100CD0000065007600690075006E00670034003121
:100CE0000000000C036700740069007000730000CE
:100CF000000403090409025B00030100A0FA0904CF
:100D0000000001030101000921110100012240003E
:100D10000705810308000109040100010300000028
:100D20000921110100012232000705820320000180
:100D30000904020002030000000921110100012240
:100D4000220007058303200001070503032000019B
:100D500012010002000000080778CBDC010001024C
:100D600000010631FF0974A1010975150026FF0075
:100D70009520750881020976150026FF00952075DB
:100D8000089102C005010980A101850319012AB754
:100D900000150126B700950175108100C0050C09EA
:100DA00001A101850419012AA002150126A00295BE
:100DB0000175108100C005010906A101050719E0B0
:100DC00029E715002501950875018102950175082F
:100DD00081010507190029FF150026FF00950675FA
:100DE00008810005081901290595057501910295ED
:100DF0000175039101C011241FBECFEFDAE0DEBF01
:100E0000CDBF11E0A0E0B1E0ECECFDE502C0059043
:100E10000D92A63CB107D9F722E0A6ECB1E001C0E3
:100E20001D92A13CB207E1F70E94AA170C94CE2EA6
:100E30000C940000FF93EF93E091C601F091C7017D
:100E4000309709F00995EF91FF910895FC01859184
:100E5000803011F0EFDFFBCF0895FF27E0E230E2B2
:100E600047FF0CC0419597FF09C0EDE26095709572
:100E700080959095611D711D811D911D27FF02C0F8
:100E8000219530E350E2AA27660F771F881F991F2C
:100E9000AA1FA41710F0A41B63955A95A9F7AA30AE
:100EA00008F0A95FA05DAF93F39561157105810509
:100EB000910541F7ED3211F4EF93F395F21718F421
:100EC0003F93F395FBCF8F91B5DFFA95E1F7089546
:100ED000E991F9918591803021F0853219F0AADFEE
:100EE000F9CF089520E0E89455915532C1F350337D
:100EF00011F4689455915A3348F4505390F3220FEB
:100F0000022E220F220F200D250FF4CF0EF4219573
:100F100089919991533619F3533729F1533559F182
:100F2000BC0188279927E8945C3621F4899199912E
:100F300068945591543639F446EF7EF077FF0DC032
:100F40008FEF9FEF0AC055374AE039F0583540E13E
:100F500021F0523642E009F00895FF93EF937DDFD0
:100F6000EF91FF91B7CFFF93EF93FC018191803018
:100F7000B9F360DFFBCFFF93EF9368DFF1CFDF932F
:100F8000CF93CDB7DEB72596A3DFCF91DF9108953C
:100F900081E0089581E008950E94CA0708950895A8
:100FA0000E94CF070895A5E0B0E0E9EDF7E00C94CA
:100FB000442E49835A833091C90189819A81311124
:100FC00019C0662399F0222389F00E94920E182FEF
:100FD000682F89819A810E946E0E69817A81812FA2
:100FE0000E9408152596E3E00C94602E0E94800E66
:100FF000182FF3CF0E94920E69817A81F1CFFC0104
:10100000262F408151816281738184810E94D307A0
:10101000089581E00895CF93DF93EC0160E00E9492
:10102000FF07BE010E94D007DF91CF9108950E9473
:10103000291608950E942D16089508950E94BD0C4A
:101040000E941D082FEF84E39CE0215080409040D7
:10105000E1F700C0000008950E941E080E942326A8
:1010600008950E941E080E94342608950F931F932E
:10107000CF93DF938C0161E00E94FF07EC01B80180
:101080000E94CC07811106C080E0DF91CF911F91B3
:101090000F910895B801CE010E9405248823A1F381
:1010A000B801CE010E947C20882371F3B801CE01E3
:1010B0000E947723882341F3B801CE010E94881F44
:1010C000882311F3F80182818823D9F0CB35FDE51F
:1010D000DF07A9F170F4C130ECE5DE07B1F0CF3DD8
:1010E000FCE5DF0721F1C115DC4559F40E942C080D
:1010F000CBCFCD35EDE5DE07F9F020F1C83ADD457F
:10110000C1F0C8010E94C807C0CF90914B02892F3F
:101110008E7F90FF816080934B0280FF05C08EE040
:1011200092E00E942607B0CF8CEF91E0FACF0E94A8
:1011300064130E943108A8CF0E94A512E2CF0E943A
:10114000AF12DFCF0E94B312DCCF0E9455250E9460
:10115000DE080E94CE1E08950E94E2080E94531EDF
:101160000E945A250895829590E09C01220F331F1A
:10117000220F331F2C7C95958795959587958373C2
:10118000282B30E0C901880F991F8A7A3595279559
:101190002575822B089508950E94CB08089581E05B
:1011A00008950E94CF0808950895CF93C82F0E94F4
:1011B000CC088C2F0E94D108CF91089580E00E9426
:1011C000D50808950E9461240E94D5080895CF9300
:1011D0000E946124C82F8091C8018C1739F1C093F7
:1011E000C80180914B0282FF1EC080FF1CC086E2B6
:1011F00092E00E94260780914B0280FF14C01F924C
:10120000CF9381E292E09F938F930E94BF078091DA
:101210004B020F900F900F900F9080FF04C08FE152
:1012200092E00E9426078C2F0E94D508CF91089546
:10123000ABE0B0E0EEE1F9E00C94452E4F83588727
:1012400069877A878B8761110E94DD111E821D825A
:1012500085E0FE013796DE01119601900D928A9588
:10126000E1F78C819D81892B61F449815A816B81E1
:101270007C818D819E810E9406112B96E2E00C9468
:10128000612E89819A8189238F3F79F3CE0101965E
:101290000E9409088111E9CFF0CFFC018081918182
:1012A0000E94CC0E0895CF93C82F8823C9F08238AE
:1012B000C9F40E94612481FD13C089E30E94951145
:1012C0000E94FE112FEF81EE94E02150804090406B
:1012D000E1F700C0000089E30E949D110E94FE1109
:1012E000CF9108958338A1F40E94612480FDF8CF46
:1012F00083E50E9495110E94FE112FEF81EE94E08C
:10130000215080409040E1F700C0000083E5E4CF29
:101310008438A1F40E94612482FDE2CF87E40E9418
:1013200095110E94FE112FEF81EE94E02150804034
:101330009040E1F700C0000087E4CECF8CEF8C0F27
:10134000813AB8F48C2F0E9434238111C9CF6C2FBD
:1013500080910001909101010E94F024882329F0DE
:101360008C2F0E949D110E94FE118C2F0E949511BE
:10137000B5CF80E28C0F883048F4C77081E001C09F
:10138000880FCA95EAF70E94C011A8CFEBE5EC0FD1
:10139000E33040F4F0E0E05BFE4F808190E00E949B
:1013A000B2249ECFC85AC73108F09ACFEC2FF0E094
:1013B000EE0FFF1FEE5DFE4F808191810E94C824D9
:1013C0008FCF882309F44DC0823879F40E946124BC
:1013D00081FF47C089E30E9495110E94FE1189E3B5
:1013E0000E949D110E94FE110895833859F40E94B5
:1013F000612480FF36C083E50E9495110E94FE1192
:1014000083E5EECF843859F40E94612482FF29C01D
:1014100087E40E9495110E94FE1187E4E1CF9CEFC2
:10142000980F913AE8F290E2980F983050F4877054
:1014300091E001C0990F8A95EAF7892F0E94C611A1
:10144000D1CF9BE5980F933028F490E080E00E9484
:10145000B2240895885A873120F490E080E00E94F9
:10146000C82408951F93CF93DF93182FEB010E9498
:101470005309209739F4812F0E94E109DF91CF9120
:101480001F9108958FE99FE00197F1F700C00000D8
:101490002197EFCF70E060E0893311F460E570E0F0
:1014A0000E94320A0895882321F00E94C0110E94F0
:1014B000FE110895882321F00E94C6110E94FE119A
:1014C0000895B0E0A0E0E7E6FAE00C943E2E6C014F
:1014D000D62FC72FFC011281F580F2949FE0F922EC
:1014E0000E94B611E82E8823B9F0E12E1123A1F055
:1014F0008C2F807F803421F080E28D0F8830D0F0F7
:1015000080917B0282FF16C082E00E9461120E94DD
:10151000B61191E0E82EE926BC2EB2948FE0B822F5
:10152000FBE0FB1508F468C0EB2DF0E0E053F14D53
:101530000C94FE2DE12CF0CF0C2F0F70C07F11F01A
:101540000295007F112399F0002359F080E28D0F5E
:10155000883010F0D11107C0802F0E94C0110E9466
:10156000FE118D2F41C0802F0E94D011F8CF8D2FFA
:101570000E94E109002309F43FC080E28D0F88300A
:1015800010F0D11104C0802F0E94C61103C0802F1B
:101590000E94D6110E94FE112FC00C2F0F70C07F29
:1015A000C03211F00295007FDD2381F0D13009F4C3
:1015B00063C0112309F46DC0FF2009F463C0F60174
:1015C000858180FFCECF8F7085835CC080917B0248
:1015D00082FD33C0112359F0002329F0802F0E948F
:1015E000C0110E94FE1180E00E94530905C080E0F6
:1015F0000E94E1090111C7CFEB2DE850FF0B349792
:1016000020F40E9461240E94D508EE2089F00E94F7
:10161000B21180FD0DC0F60112820E94AC110E9431
:10162000760DC6010E94810C0E94AC110E94980D9B
:10163000CDB7DEB7E9E00C945A2E112389F0F110F2
:1016400006C00E94E011802B0E94530AD5CF21E0F2
:10165000F212F7CF0E94E011802B0E94E711CCCF4D
:10166000F11006C00E94F411802F0E945A0AC4CFC4
:1016700031E0F31609F2F6CF112331F085E08F1532
:1016800008F4BACF802FE0CF94E09F1508F4B4CFD0
:10169000EBCFFF2049F3D93349F4FFEF27EE33E0D6
:1016A000F15020403040E1F700C000008D2F0E9433
:1016B000E109A2CF8C2F86958695837069F08130E1
:1016C00009F09ACF8D2F9C2F9370111102C090E0DA
:1016D00080E00E94C82490CF8D2F9C2F9370111111
:1016E00002C090E080E00E94B22486CF8C2F8370ED
:1016F00009F041C0111180CF4D2F4295469547709A
:10170000440F440F0D2F0F7010E030E020E0042E46
:1017100004C0000F111F221F331F0A94D2F760E08C
:1017200070E0CB01D4FF0FC06FE070E080E090E08C
:1017300004C0660F771F881F991F4A95D2F76095DE
:10174000709580959095C695C695C370602B712B4A
:10175000822B932BC23049F058F4C13019F00E940B
:10176000210D4ACF0E940E0D47CF0E94340D44CF69
:101770000E940B0D41CF8695112311F08C2F8170A3
:10178000882309F439CF4D2F429546954770440F71
:10179000440F0D2F0F7010E030E020E0042E04C045
:1017A000000F111F221F331F0A94D2F760E070E070
:1017B000CB01D4FF0FC06FE070E080E090E004C088
:1017C000660F771F881F991F4A95D2F7609570950D
:1017D00080959095C695C695C370602B712B822B12
:1017E000932BC23049F058F4C13019F00E94F10D2A
:1017F00003CF0E94DE0D00CF0E94040EFDCE0E949A
:101800004D0DFACECF70112329F08C2F0E94760D4A
:101810008D2F1ACF8D2F0E945A0A8C2F0E94980D5F
:10182000EBCED23F51F160F4D03FB9F0D13F81F01F
:10183000112309F449C0F11094CE8C2F8F7121C06F
:10184000D33F11F1D43FA1F780917B0282FD26C0E6
:101850008C2F8F71112311F314C0112349F084E0F0
:101860008F1508F4C9CE8C2F8F710E94BC0DC4CE89
:1018700095E09F1508F4C0CEF6CF8C2F8F71111113
:10188000CDCF0E94760DB8CE112329F08C2F8F7109
:101890000E94600DB1CE0E945A0DAECE112349F0C8
:1018A000CF718C2F0E94760D63E08C2F0E94431223
:1018B000A3CE81E00E946112E1E0EF1508F09CCE1A
:1018C00082E00E94611298CEF110E5CE8C2F8F71CC
:1018D000A5CF0F931F93CF93DF93EC01688179819C
:1018E0008A810E94D70E8C010E94170E0E940A0D59
:1018F000B801CE010E94610ADF91CF911F910F9133
:101900000895CF93DF93EC018B819C81892B29F083
:101910008881998189238F3F51F4DF91CF91089578
:10192000CE010E94690CCE010E940B08F6CFCE01B9
:101930000E9436088111F4CF0E94B611882369F302
:101940008A81882351F380917B0282FFE6CF82E077
:101950000E946112E2CF90E080E00E94B22490E009
:1019600080E00E94C8240E94DD110E94FE110895AB
:101970000E94A5110E94AB0C08950E94CD110E94F7
:10198000B80C089592959F70963091F058F4925F3C
:101990009F70923058F4803F19F030F4883E30F454
:1019A00081E008959A5FF4CF843FD1F380E00895F9
:1019B000883EB0F3813FD1F7F3CFFC018081918164
:1019C0000E94CC0E0E94C20C0895A5E0B0E0EBEEA0
:1019D000FCE00C94452E2596E2E00C94612EA6E0E6
:1019E000B0E0E5EFFCE00C94452E2696E2E00C9486
:1019F000612E08950E94F90C08950E94FA0C6093DC
:101A0000EC017093ED018093EE019093EF010E9441
:101A1000AB0C089508950E94FD0C08950F931F9339
:101A20000091EC011091ED012091EE013091EF0158
:101A3000602B712B822B932B0E94FD0C1F910F9119
:101A400008950F931F930091EC011091ED012091E7
:101A5000EE013091EF0160237123822393230E94D2
:101A6000FD0C1F910F9108950F931F930091EC01AE
:101A70001091ED012091EE013091EF016027712767
:101A8000822793270E94FD0C1F910F9108950E94B9
:101A9000F90C08950E94470D08950E944A0D609325
:101AA000E8017093E9018093EA019093EB010E94B1
:101AB000AB0C089560E070E0CB010E944D0D0895DD
:101AC0000F931F9341E050E060E070E08A019B01BA
:101AD00004C0000F111F221F331F8A95D2F7C901BE
:101AE000B8010E944D0D1F910F9108950F931F9300
:101AF00041E050E060E070E004C0440F551F661FF5
:101B0000771F8A95D2F78091E8019091E901A09121
:101B1000EA01B091EB018A019B01082B192B2A2BBA
:101B20003B2BC901B8010E944D0D1F910F910895E3
:101B30000F931F9341E050E060E070E004C0440F59
:101B4000551F661F771F8A95D2F7CB01BA016095A2
:101B50007095809590950091E8011091E901209190
:101B6000EA013091EB0160237123822393230E94C9
:101B70004D0D1F910F9108950F931F9341E050E079
:101B800060E070E004C0440F551F661F771F8A9500
:101B9000D2F78091E8019091E901A091EA01B0911A
:101BA000EB018A019B01082719272A273B27C90136
:101BB000B8010E944D0D1F910F9108950F931F932F
:101BC0000091E8011091E9012091EA013091EB01C7
:101BD000602B712B822B932B0E944D0D1F910F9127
:101BE00008950F931F930091E8011091E90120914E
:101BF000EA013091EB0160237123822393230E9439
:101C00004D0D1F910F9108950F931F930091E801BF
:101C10001091E9012091EA013091EB0160277127D1
:101C2000822793270E944D0D1F910F9108950895CB
:101C3000262F277091E001C0990F2A95EAF723E03B
:101C4000769567952A95E1F725E0269FF001279F75
:101C5000F00D1124E40FF51F50E040E0682F70E014
:101C60008191DF0111979B01042E02C036952795C3
:101C70000A94E2F7217021952827292328272C93FD
:101C80004F5F5F4F4530510559F70895A82FA77052
:101C900023E0969587952A95E1F725E0289FF001A6
:101CA000299FF00D1124E60FF71F50E040E080E07F
:101CB000219130E00A2E02C0369527950A94E2F76A
:101CC00021703327042E01C0220F0A94EAF7822BD9
:101CD0004F5F5F4F4530510559F70895262F9730D4
:101CE00070F4863060F4682F70E086E0989F600D95
:101CF000711D11244AEC51E0822F0E94180E0895A4
:101D0000292F973068F4863058F490E06AEC71E03F
:101D100036E0239F800D911D11240E94460E0895E8
:101D200080E00895B0E0A0E0E8E9FEE00C943E2EEB
:101D30008C01C090E801D090E901E090EA01F090B8
:101D4000EB018091EC019091ED01A091EE01B09139
:101D5000EF01C82AD92AEA2AFB2ACFE1D0E0BC2E1B
:101D6000D701C6010C2E04C0B695A7959795879507
:101D70000A94D2F780FD09C0219788F7B12C8B2DEA
:101D8000CDB7DEB7E9E00C945A2EB8018C2F0E9433
:101D90002315019789F3F3CFCF93DF93EC010E94D2
:101DA000920EBE010E942315DF91CF9108951F93DB
:101DB000CF93DF93EB019091C901992339F0CB01C7
:101DC0000E94CC0EDF91CF911F910895882369F076
:101DD000CB010E94920E182F682FCE010E946E0E2A
:101DE000BE01812F0E942315EDCFCB010E94800EF2
:101DF000182FF6CF1F93CF93DF93C091F00116E019
:101E00008091F1018C1304C0DF91CF911F9108954F
:101E1000D0E01C9FF0011D9FF00D1124EE50FE4FED
:101E20004081518162817381848195810E94EF0C90
:101E30002196C770E5CF4091220250912302609114
:101E400024027091250280912602909127020E941F
:101E5000EF0C08951F93CF93DF9380912702807F2B
:101E600009F049C080912402882309F444C080917C
:101E7000F001C091F1016091220270912302A091C2
:101E80002502B0912602D62FD72316E0C81799F164
:101E900090E0109711F0DF3F19F401968770F6CFAC
:101EA000189F9001199F300D1124F901EE50FE4F3B
:101EB00041814713F2CF40814613EFCF4281411158
:101EC000ECCF438154814A1B5B0B483C510528F7FA
:101ED000809127028F70806180932702F901E95079
:101EE000FE4F80818F708061808382E292E00E9449
:101EF000810C0E94FA0EDF91CF911F910895A1E10C
:101F0000B0E0E5E8FFE00C943D2E8C0185E0F8019F
:101F1000DE011D9601900D928A95E1F7F801E280AD
:101F200082E2C82E82E0D82E6091250270912602AE
:101F30006115710509F44EC190912202209123028E
:101F4000892F82238F3F09F445C140815181A380AD
:101F5000B480F0902402F501E61BF70BFF2009F492
:101F6000EAC080912702382F307FE83CF10508F065
:101F7000A3C031116DC0FE2C251316C0941314C0DC
:101F8000E11012C08F708061809327020E941B0FA6
:101F9000C6010E94810C80912702F80185838F2D54
:101FA0006196EAE00C94592EA114B10429F0842F13
:101FB00085238F3F09F027C180E0F82FF170DF2ED5
:101FC00080FF3CC08091F0012091F10136E0821346
:101FD00015C04D875E878D859E850E94CC0E292F6A
:101FE00022952F702230F0F0243018F59F70F1F018
:101FF000F8019581907FD1F4D12C1EC090E0389FDC
:10200000F001399FF00D1124EE50FE4F61816513F0
:1020100006C06081641303C06281E6120FC001969E
:102020008770D5CF9F7011F0882331F3805E8830A0
:1020300018F3C8010E94810CFD2CB1CFEE2009F4E9
:10204000AECF80912702816080932702F12CA7CF29
:10205000251306C0941304C0F801EE2009F487C0CC
:10206000C8010E94DD0C882319F1EE2009F180914E
:102070002702803270F020912202309123023887AB
:102080002F831986BB86AA868C87CE0107960E946D
:10209000810C86E0F801A2E2B2E001900D928A95EF
:1020A000E1F70E942A0F0E941B0FFF24F39477CFC1
:1020B000C8010E94810CF9CF311113C07A2DB98A61
:1020C000A88A6E2D89890E94E50C82E292E00E9426
:1020D000810C86E0F60111928A95E9F70E941B0FA8
:1020E000B5CF25130FC094130DC0E1100BC0F8013C
:1020F0008583C8010E94810C86E0F60111928A95C1
:10210000E9F74DCFC8010E94DD0C882389F2EE204B
:1021100079F280912702803208F4BBCF209122020D
:10212000309123023A8329831B82BD82AC828E8345
:10213000CE010196ACCFE83CF10508F03EC0FE2C84
:10214000EE2009F4B5CF25132AC0941328C080913E
:10215000270280FD1BC0982F907FC1F0F801858376
:10216000903F31F0982F907F905F8F70892B8583FF
:10217000C8010E94810C86E0F801A2E2B2E0019061
:102180000D928A95E1F70E941B0F09CF86E0F801B6
:10219000A2E2B2E001900D928A95E1F700CFC8016A
:1021A0000E94DD0C811175CF8091270281608093A0
:1021B0002702C8010E94810CF2CE7A2DB98AA88A22
:1021C0006E2D89890E94E50C86E0F60111928A95B0
:1021D000E9F7D9CFEE2009F46BCFC8010E94DD0CDE
:1021E000F82E882309F464CF86E0F801A2E2B2E079
:1021F00001900D928A95E1F782E292E00E944D09EA
:102200000E942A0FC0CF81E08E25D7CEACE0B0E08F
:10221000ECE0F1E10C94442E4F83588769877A876C
:102220008B879C87CE0107960E947F0F882369F0D9
:102230008A859B85892B39F04F815885842F85238A
:102240008F3F09F06BC016E05FC086E0FE01379655
:10225000DE01119601900D928A95E1F78A859B85A2
:10226000892B89F388859F8189238F3F61F3209192
:10227000F10130E0C9010196877099274091F00182
:102280004817190671F40E94BD0C1092F1011092CA
:10229000F00186E0E2E2F2E0DF011D928A95E9F7C3
:1022A000D2CF96E0929FD001939FB00D1124AE50F3
:1022B000BE4FFE01319601900D929A95E1F7809301
:1022C000F1010E94FA0EBFCF819FC00111248E50F0
:1022D0009E4F0E947F0F8823E9F0E091F0011E9F3E
:1022E000F0011124EE50FE4F4081518162817381D3
:1022F000848195810E94EF0C8091F00190E001961D
:10230000877099278093F0018091F0019091F101FD
:102310008913DACF2C96E3E00C94602E69857A85D8
:102320008B859C850E94EF0C8ECF682F80910001D9
:10233000909101010E9426250895682F8091000147
:10234000909101010E9429250895809100019091AA
:1023500001010E942C250895809130028595859574
:10236000859508958091300287700895909130028C
:10237000977081E009F480E0089580913B02089510
:1023800090913B02892B80933B0208958095909118
:102390003B02982390933B02089510923B020895CC
:1023A00090913A02892B80933A02089580959091FA
:1023B0003A02982390933A02089510923A020895AF
:1023C00080913102089508950E94E311089590913B
:1023D0007B0292FF08C090913102981721F0809300
:1023E00031020E94E411089580913102882329F07E
:1023F0001092310280E00E94E4110895CF93DF93A0
:10240000E0910001F091010180913B028083E09115
:102410000001F0910101808190913A02892B808323
:1024200090913102992381F0E0910001F091010136
:102430008081892B808380910001909101010E940D
:10244000DE2481110E94F411C0910001D09101019C
:1024500048E050E068E272E0CE010E94792E892BBC
:1024600059F088E0FE01A8E2B2E001900D928A9551
:10247000E1F7CE010E946E24DF91CF910895089577
:102480000E943F12089590917B0292FF11C098E044
:10249000899F90011124622B609330020E94760D77
:1024A000809130028595859585950E94401208950A
:1024B0000E94760D08951092300280E00E94401232
:1024C0000895909130028095892380933002282FBF
:1024D000277091F4282F082E000C330B9217130647
:1024E00059F090917B0292FF07C08595859585955F
:1024F0000E94980D0E945B120895CF93C82F80917F
:102500007B0282FB992790F99C17E9F0C0FB82F9C6
:1025100080937B0280917A0290917B020E94DA1272
:1025200082E00E94611280914B0280FF0CC01F92DA
:10253000CF9381E392E09F938F930E94BF070F9008
:102540000F900F900F90CF91089580917B0282FBA6
:10255000882780F991E089270E947D12089581E003
:102560000E947D12089580E00E947D12089590E0FF
:1025700080E00E94942E21E0883E9E4F09F020E0EA
:10258000822F089582E090E00E94862E089583E0D5
:1025900090E00E94862E0895CF9384E090E00E9400
:1025A000862EC82F82E290E00E94862E982F8C2FD4
:1025B000CF910895CF93C92F682F84E090E00E94B7
:1025C0009A2E6C2F82E290E00E949A2ECF9108956D
:1025D000AB01BC018FE090E00E94AC2E0895AB01EE
:1025E000BC0183E190E00E94AC2E089560E070E0B1
:1025F000CB010E94EF12089560E070E0CB010E94D1
:10260000E8120E94F612089568EE7EEF90E080E0F6
:102610000E94B82E60E082E090E00E949A2E60E076
:1026200083E090E00E949A2E1092EC011092ED014E
:102630001092EE011092EF0160E084E090E00E94C1
:102640009A2E64E082E290E00E949A2E60E085E09B
:1026500090E00E949A2E60E086E090E00E949A2E20
:102660006FEF87E090E00E949A2E40E050E0BA01C0
:1026700088E090E00E94AC2E60E08DE090E00E9447
:102680009A2E40E050E0BA0188E190E00E94AC2E22
:1026900060E087E190E00E949A2E40E050E0BA01AD
:1026A0008CE190E00E94AC2E70E060E080E290E06F
:1026B0000E94B82E40E050E0BA0188E190E00E940C
:1026C000AC2E0E94FC1208950E9404130895682FF6
:1026D0008EE090E00E949A2E08950E94E425609377
:1026E0004702709348028093490290934A02609394
:1026F00043027093440280934502909346020895EA
:10270000089508950E948113089508950E948513E5
:10271000089587EF97E20E9457240E9480130E9439
:102720008213089581E008950E94921308950895F8
:1027300008950E9497130E94981308950E9403160B
:102740000E94D40808950E94CF250E9414170E9469
:102750009E130E94D21D0E9486130895AAE0B0E045
:10276000E4EBF3E10C943B2E0E942A17982E811182
:102770000E946D138CE3A82E82E0B82E10E000E0DA
:10278000802E802F0E943016E82EF501C1905F0147
:10279000C816B1F180914B0281FD0E943616D12CF2
:1027A000FF24F394CE248C2D8F2129F10E949413C1
:1027B000882399F0DE828F82EF2081E009F480E0A7
:1027C00088870E94D8258160782F9A8789874E81D3
:1027D0005F8168858A850E941809F801E45CFD4FD5
:1027E0008081F826F08281E0911001C080E02A9675
:1027F000ECE00C94572ED394FF0CF6E0DF12D3CF0D
:102800000F5F1F4F0730110509F0BACF8FEF898393
:102810008A831B820E94D8258160782F9D838C83B8
:1028200049815A816B818D810E941809DCCF0E94F9
:10283000AE130E94DF1E0E94E7080895CF93DF9336
:102840000E942815EC01811522E59207E8F5811513
:1028500031E5930708F0ACC0883E910510F5803E45
:10286000910570F5883A910570F4853A910508F064
:1028700078C08130910521F1009711F1049700F59E
:10288000D0E0C0E01DC08F3B9105D0F7C85AD0E022
:10289000CC0FDD1FCD5ADE4F0990D881C02DD464F6
:1028A0000FC0811540E5940708F066C0C11580E4AB
:1028B000D80708F05EC0CE019A9581159F4100F7B8
:1028C000CE01DF91CF910895811536E5930718F574
:1028D000811545E5940708F083C0C11584E5D80744
:1028E00008F079C09C2F969596959E01237033270A
:1028F000C115D34508F461C0C1E0D0E002C0CC0FDF
:10290000DD1F2A95E2F730E2939FC0011124C82B06
:10291000D92BDA68D5CFC1158AE5D80778F4C11567
:1029200099E5D90708F066C0C11528E5D20708F473
:10293000A7CFDC2FCC27C06FD06AC2CFCE01905674
:102940008115904208F09CCF8D2F8F710E94BF158A
:1029500090E0982F882788279F719C012C2BE901F4
:1029600047C0C55AD0E0CF57DE4FC881D0E0D06411
:10297000A7CFDF70D06AA4CFE4E096958795EA955B
:10298000E1F783702C2F26952695237040E2249F33
:1029900090011124382B8C2F8370C1E0D0E002C04D
:1029A000CC0FDD1F8A95E2F7C22BD32BDC6888CFD2
:1029B000D82FCC27C16FD06A83CFC1E0D0E002C04E
:1029C000CC0FDD1F2A95E2F720E2929FC00111246F
:1029D000C82BD92BEBCFDC2FCC27C46FD06A70CF9C
:1029E0000E94BF15C82FD0E0DC2FCC27CC27DF7189
:1029F000D06266CF8C2F8F700E94BF1534E0D695C1
:102A0000C7953A95E1F7CF709C2FEC01D06958CF6C
:102A1000972F7730A8F4663098F470E026E0929F04
:102A2000600D711D1124FB019AE2899FE00DF11DDB
:102A30001124EE0FFF1FE455FF4F859194910895E7
:102A400080E090E008950E9408150E941E140895E9
:102A500082389105B1F1B0F48133910509F475C064
:102A600048F48932910509F469C08A32910509F464
:102A700073C008958533910509F459C089339105D0
:102A800001F10895833E9105A9F138F4803E910546
:102A9000F9F0823E910549F10895863E9105A9F12C
:102AA000873E9105C9F1843E910519F520917B027D
:102AB00021FF1FC080917A0284FD14C087EE90E050
:102AC000089520917A022370A1F080EE90E008959D
:102AD00020917A0220FD47C030917B0230FF09C06F
:102AE00024FF44C090E080E004C020917A0222FDDF
:102AF000F7CF089520917A0222FD3BC030917B02EE
:102B000030FDE3CF24FFF5CFEDCF20917A0223FFF4
:102B1000F0CF24FDE7CFD2CF20917A0223FD2CC045
:102B200030917B0231FFEECF84EE90E0089520914A
:102B30007A0225FFDECF89E290E0089520917A02A3
:102B400025FFD7CF85E390E0089520917A0226FFF4
:102B5000D0CF8AE290E0089520917A0226FFC9CF73
:102B600081E390E0089589E390E0089583EE90E09A
:102B7000089582EE90E0089586EE90E00895909199
:102B80007A0292FF06C0282F28712830F9F4877F37
:102B9000846093FF06C0282F28712831F1F4877EC6
:102BA000846120917B0220FF06C0382F38713830B5
:102BB000D9F4877F816021FF06C0282F2871283132
:102BC000D1F4877E816194FD877E0895282F24713A
:102BD0002430F9F68B7F8860DCCF282F24712431D4
:102BE00001F78B7E8861DDCF382F3171313019F7D5
:102BF0008E7F8860E0CF282F2171213121F78E7ED2
:102C00008861E1CF08950E94B712811102C00E942D
:102C100064130E94C21280934B020E94CC129093C4
:102C20007B0280937A020E9402160E94C712682FCC
:102C300070E090E080E00E940B0D6091E8017091DF
:102C4000E9018091EA019091EB010E944A0D0895FB
:102C500008950E942816089508950E942C1608953C
:102C6000E82FF0E0ED57FD4F80810895B0E0A0E03F
:102C7000ECE3F6E10C943F2E85E592E00E942607F6
:102C800083E8E82E82E0F82ED0E0C0E090E5C92E7F
:102C900092E0D92E08E412E0DF93CF93DF92CF9237
:102CA0000E94BF078DE492E00E942607F701819100
:102CB0007F010E94B3081F928F931F930F930E946E
:102CC000BF0786E492E00E94260721968DB79EB743
:102CD00008960FB6F8949EBF0FBE8DBFC730D105C2
:102CE000D9F6CDB7DEB7E8E00C945B2E80EA8A9582
:102CF000F1F7089500C008950E9476160895F8949B
:102D0000E82FE295EF70F0E031A1282F2F7081E0DD
:102D100090E001C0880F2A95EAF7982F90959323A9
:102D200091A392A1892B82A3789408950F931F9366
:102D3000CF93DF93CAE8D1E089918F3F11F00E94D1
:102D40007F1681E0C139D807B9F7C4E8D1E00AE8B5
:102D500011E089918F3F11F00E947F160C171D071B
:102D6000C1F7DF91CF911F910F910895B0E0A0E0DE
:102D7000ECEBF6E10C943F2EEC01D62E062F10E082
:102D8000C80186579E4F7C01FC0180818F3F09F46A
:102D900044C0F894E82FE295EF70F0E091A18F70B5
:102DA00021E030E001C0220F8A95EAF7892F822BBB
:102DB00081A382A12095282322A378940E947A16C9
:102DC000E4E8F1E031E0C12C21912F3F59F1A22F2D
:102DD000A295AF70B0E090968C9190E02F7002C0F9
:102DE000959587952A95E2F780FD1CC0832FC82A08
:102DF000330F81E0EA38F80739F7F70180818F3F18
:102E000011F00E947F1661E0C11001C060E08D2DBD
:102E10000E947C16C00FD11FC882CDB7DEB7E8E094
:102E20000C945B2E80E0E3CF0E94961687E0E3E8E7
:102E3000F2E0DF01982F1D929A95E9F7ECE7F2E0B6
:102E4000DF011D928A95E9F787E00E9466170E94CC
:102E500017080895A7E0B0E0E0E3F7E10C94422EF4
:102E60008E010F5F1F4F87E0F80111928A95E9F7F5
:102E7000F12C6F2DC8010E94B616F394F7E0FF12F3
:102E8000F8CF47E050E0B8018CE792E00E94792E3D
:102E9000FF24F394009709F4F12C892B41F087E08B
:102EA000F801ACE7B2E001900D928A95E1F72F2D81
:102EB00047E063E872E08CE792E00E9467170E94A7
:102EC0001A088F2D2796E5E00C945E2E0895FF9248
:102ED0000F931F93CF93DF93F82E092F162FD72F21
:102EE000C42F222349F081E080934E020E94D8250E
:102EF00090934D0280934C0280914E028823A1F062
:102F000080914C0290914D020E94F025059760F04F
:102F1000EF2DF02FA12FBD2FCE0FDF2FD11DEC17DE
:102F2000FD0739F410924E02CDB7DEB7E5E00C9400
:102F30005E2E81918D93F3CF0E9473280E94A3137C
:102F40000E94802808950E9485280E9417140E94DC
:102F5000A32808950E9471250E9459280E94891370
:102F60000E949C170E94A3170E949913FBCFEF9217
:102F7000FF920F931F93CF93DF93EB01E82FD111B3
:102F80000EC0442321F0F0E0E453F94FE4916E2F9A
:102F90007E2F8E2FCDB7DEB7E6E00C945D2E0D2F81
:102FA00010E0282F30E0442329F02453394FF90151
:102FB000249130E0F6E0CF9FC0011124EFEFF0E064
:102FC000BF010E94B42DAB018C2F90E0880F991F98
:102FD000A5E5A49FB001A59F700D1124861B970B3A
:102FE000982F990F980FBF01601B710B629FD00142
:102FF000639FB00D729FB00D11248B2F9D9FB00168
:103000001124672F7727EF01C61BD70BBE01629FE4
:10301000E001639FD00D729FD00D11247F01E91A4A
:10302000F108E09EB001E19E700DF09E700D11243C
:10303000672F7727E61BF70BE29F8001E39F100DB8
:10304000F29F100D1124E12F722F4230510599F09B
:1030500048F44115510569F04130510581F0EB2FDD
:103060008D2F07C04430510569F080F0463051057E
:10307000B1F76E2F8FCFE22F7B2F812FFACFE22F68
:103080007D2FF7CFEB2F822F712FF3CF7B2F822F46
:10309000ED2FEFCF41E00E94B717089508950E94E9
:1030A0004A180895CF93DF93762FE901682F842F74
:1030B0000E944F18798368838A83DF91CF910895A6
:1030C00080918A02982F9E7F29F48170826080937C
:1030D0008A0208958A34E8F381708864F8CF88E022
:1030E00090E00E948E2E0895CF92DF92EF92FF9291
:1030F0006B017C010E946018B701A60188E090E096
:103100000E94AC2EFF90EF90DF90CF900895EAE8F8
:10311000F2E083E0808311828FEF828383831482C5
:1031200060817181828193810E94741808958091D9
:103130004B0280FF76C08CE995E09F938F930E94AD
:10314000BF0780914B020F900F9080FF6AC0809163
:103150008A0281701F928F938FE795E09F938F93E0
:103160000E94BF0780914B020F900F900F900F901D
:1031700080FF57C080918A0286951F928F9384E6C4
:1031800095E09F938F930E94BF0780914B020F9011
:103190000F900F900F9080FF44C080918B021F9280
:1031A0008F938AE495E09F938F930E94BF0780914D
:1031B0004B020F900F900F900F9080FF32C08091C4
:1031C0008C021F928F9380E395E09F938F930E94D0
:1031D000BF0780914B020F900F900F900F9080FFD0
:1031E00020C080918D021F928F9386E195E09F937E
:1031F0008F930E94BF0780914B020F900F900F900A
:103200000F9080FF0EC080918E021F928F938AEFE5
:1032100094E09F938F930E94BF070F900F900F90A1
:103220000F90089580918A0280FF02C086950895CC
:1032300080E0089590918E02933018F49F5F9093F0
:103240008E02882351F060918A0270918B028091E6
:103250008C0290918D020E947418089581E00E9462
:103260001A19089590918E02992319F09150909314
:103270008E02882351F060918A0270918B028091B6
:103280008C0290918D020E947418089581E00E9432
:103290003219089570E00E9450200895609106014F
:1032A00080918A0280FF0BC08091050123E0829FFC
:1032B000C001112481579D4F0E944A1908958091A1
:1032C00007019091080123E0829FF0011124E1574A
:1032D000FD4F891748F71182108212828F5F339653
:1032E000F8CF90918A0290FF0EC090910701209133
:1032F000080133E0939FF0011124E157FD4F92172D
:1033000018F00E944E1908958183608342839F5F65
:103310003396F5CFA3E0B0E0E0E9F9E10C94452E57
:1033200090918A0290FF0AC09E012F5F3F4F0E943A
:1033300052184B8169818A810E9471192396E2E0BB
:103340000C94612ECF93DF93EC01EC81F0E0E95314
:10335000FA4F4491EAE8F2E0628181810E948A1981
:103360008C818F5F8C83DF91CF910895CF93DF9312
:10337000EC01EAE8F2E0438162818C810E948A19C3
:103380008C818F5F8C83DF91CF910895A3E0B0E0B3
:10339000ECECF9E10C94432E8C0180914F028111E9
:1033A0000AC09E012F5F3F4F4FEF6FEF0E945218F0
:1033B0008A8180934F02F8016481613069F08091C5
:1033C0004F0240E0662361F040E0623011F440912A
:1033D0004F0280E060E004C060914F0240E080E076
:1033E0000E947119F801848190E0019663E070E019
:1033F0000E94C82D84832396E4E00C945F2EA3E002
:10340000B0E0E5E0FAE10C94382E082FE62EF42E19
:10341000C22E90918A0290FF45C0E92FE695AE2F0B
:10342000B0E0AF56BE4F8C9180935B029E7F92308E
:10343000E9F59E012F5F3F4F802F0E9452184B816C
:1034400069818A810E94711900938B02E0928C023B
:10345000F0928D02CC2009F486C060918A027091AE
:103460008B0280918C0290918D020E947418809141
:103470004B0280FF17C080918D021F928F93809125
:103480008C021F928F9380918B021F928F938DEBF2
:1034900092E09F938F930E94BF070FB6F894DEBF10
:1034A0000FBECDBF2396EFE00C94542E823019F45A
:1034B000F0908D02C9CF863019F400918B02C4CFF1
:1034C0008930D9F3893109F0BFCFE9518E2F81704E
:1034D000782E8E2F80958170D82EE695F0E0E953F6
:1034E000F94F1491612C92EEA92E92E0B92E6091C1
:1034F0000901661618F00E944E19A6CF619EC00100
:10350000112470E00E94B42D502E71102AC0560E66
:10351000862C912C80914B0280FF11C01F921F932B
:103520001F92DF921F925F921F926F92BF92AF9293
:103530000E94BF070FB6F894DEBF0FBECDBF20912B
:103540000701820E911C9401220F331F280D391D93
:1035500021573D4F4F2D6E2D852D0E94521863949B
:10356000C6CF561AD5CF80914B0280FF9BCF1F92BA
:10357000FF921F92EF921F920F9386E992E089CFFC
:10358000EAE8F2E09181282F4381628180E1890F8E
:103590000E94FF19089581E00E94C01A0895EAE888
:1035A000F2E09181282F4381628180EF890F0E9490
:1035B000FF19089581E00E94CF1A0895EAE8F2E029
:1035C000628120E1620F08F46FEF282F438181812F
:1035D0000E94FF19089581E00E94DE1A0895EAE82A
:1035E000F2E0628120E1621B08F460E0282F438151
:1035F00081810E94FF19089581E00E94EF1A0895C9
:10360000EAE8F2E0438120E1420F08F44FEF282F6F
:10361000628181810E94FF19089581E00E94001B50
:103620000895EAE8F2E0438120E1421B08F440E01B
:10363000282F628181810E94FF19089581E00E94F4
:10364000111B089520E00E94FF190895EF92FF9248
:103650001F93CF93DF93EC0110E0EE24EA94F12C5A
:1036600060910901161770F00E944E199A818C81A1
:1036700090FF27C08F5F8C83DF91CF911F91FF90C8
:10368000EF90089520910701422F410F5527551FB4
:10369000CA019A01220F331F280F391F21573D4FAE
:1036A00070E0C7010E94C82D962F8C8140918D0239
:1036B00060918C02199F800D11240E9452181F5F87
:1036C000CFCF8150D8CFB0E0A0E0E9E6FBE10C9489
:1036D0003D2EFC0182810FEF80FF01E010E04BE006
:1036E000A42E80910901181798F00E944E1980911C
:1036F0005102013009F04FC0811102C080910901CF
:10370000815080935102CDB7DEB7EAE00C94592E78
:10371000C0910701C12ED12CCC0DDD2DD11DCE01C4
:10372000880F991FC80FD91FC157DD4F1982188202
:103730001A8234E0E32EF12CB12C809151028B0DD2
:103740008C301CF16A2D0E94A62D892F082E000CAA
:10375000990BC816D90691F480918D028E9DA00117
:103760008F9D500D112455954795559547959E0170
:1037700060918C0280918B020E945218B00EF1E091
:10378000EF1AF108D1F61F5FACCF87FFDFCF909122
:103790000901890FDBCF90E001966091090170E08B
:1037A0000E94C82DAECF0F931F93CF93DF938091CC
:1037B00007019091080123E0829FF0011124E15755
:1037C000FD4F891740F1C0E0D3E060910901C617B1
:1037D00040F10E944E192091030180915002820F06
:1037E0008093500290910401920F90930401191656
:1037F00054F4082E000C990B409109014150550BCF
:10380000841795071CF0219520930301DF91CF9138
:103810001F910F9108951182108212828F5F33964B
:10382000D0CF0C2F10E070E0C8010E94C82D20916D
:103830000701820F482F50E020915002022E000C09
:10384000330B02171307BCF020910401022E000C69
:10385000330B201731077CF08D9F900111242157E5
:103860003D4F40918D0260918C0280918B020E94AD
:103870005218CF5FAACFFA01EE0FFF1FE40FF51F1A
:10388000E157FD4F118210821282F3CFB0E0A0E029
:10389000ECE4FCE10C943B2EEC014C81042F10E095
:1038A0009801D8010E940C2E9B01AC010E94222E8F
:1038B0004B015C01E0E2F0E0E01BF10BA5E5B0E0BC
:1038C000AC019B010E94222E6B017C019F01DF0154
:1038D0000E94042E9B01AC010E942D2E9B01AC0185
:1038E000280D391D4A1D5B1DC701B6010E94DC2D44
:1038F000F22E822F90E039E23F1520F143E0249F21
:103900009001112435952795122F109500E085E53B
:10391000E82EEF1880910901081718F10E944E193E
:103920009C8181E0992319F0903219F48FEF8093F4
:10393000020180910201890F8C83CDB7DEB7ECE0E4
:103940000C94572E25E530E0B901681B790B9B01DB
:10395000220F331F260F371F37FFD4CF2F5F3F4F64
:10396000D1CF8E2D01FD8F2D20910701622F600F89
:103970007727771F9B01220F331F260F371F2157F1
:103980003D4F412F60918C020E9452180F5FC2CFB1
:103990000F931F93CF93DF93EC0110E000E0909121
:1039A00009019017110609F06CF40E944E198C81E0
:1039B00090E00196817099278C83DF91CF911F91C0
:1039C0000F91089520910701A801420F511D9A01FE
:1039D000220F331F240F351F21573D4F4C8160911B
:1039E0008C0280918B0296959017110651F04CF045
:1039F000442349F040918D020E9452180F5F1F4FDF
:103A0000CECF4423B9F340E0F7CF60918A026695A8
:103A100070E04BE050E08AE091E00E946C2E892B30
:103A200019F481E080935C020E94D82590935302A0
:103A30008093520280914B0280FF08C08DE792E094
:103A40009F938F930E94BF070F900F90089510923D
:103A50005C0280914B0280FF08C084E692E09F9355
:103A60008F930E94BF070F900F90089590918A0244
:103A700090FF3EC0917081113CC0926090938A0289
:103A80006623F1F160918A0270918B0280918C0221
:103A900090918D020E94741880914B0280FF0FC09C
:103AA00080918A0286951F928F9380E494E09F9381
:103AB0008F930E94BF070F900F900F900F9060910F
:103AC0008A02669570E04BE050E08AE091E00E9447
:103AD0006C2E892B09F10E94271D81E080935502ED
:103AE00040918D0260918C0280918B020E94221B7A
:103AF0000895853210F09864C1CF880F982BBECFFF
:103B000080914B0280FFDBCF80918A0286951F92C5
:103B10008F9382E294E0CBCF0E94051DDECF682F09
:103B200090918A02969581E0890F853208F081E0B4
:103B30000E94361D089581E00E948F1D0895682F10
:103B400090918A0296958FEF890F09F484E20E9482
:103B5000361D089581E00E949F1D089561E00E9436
:103B6000361D089580918A02816080938A02809137
:103B70004B0280FF0DC01F9281E08F9384EB93E096
:103B80009F938F930E94BF070F900F900F900F90FD
:103B900080918A0286950E94AE1D089560E00E9481
:103BA000361D089580915A02811160C080914B02A8
:103BB00080FF14C083EE94E09F938F930E94BF0711
:103BC00080914B020F900F9080FF08C08DEC94E025
:103BD0009F938F930E94BF070F900F900E94B71280
:103BE000811110C080914B0280FF08C085EA94E0EB
:103BF0009F938F930E94BF070F900F900E946413B2
:103C00000E9487180E946F1860938A0270938B023B
:103C100080938C0290938D026E7FC1F480914B0251
:103C200080FF08C08CE594E09F938F930E94BF07AC
:103C30000F900F900E9487180E946F1860938A025D
:103C400070938B0280938C0290938D020E94601877
:103C50000E94971810925C0280918A0280FF03C034
:103C600086950E94CE1D81E080935A02089580912E
:103C70008A02816080938A0280914B0280FF0DC08E
:103C80001F9281E08F938BE793E09F938F930E9425
:103C9000BF070F900F900F900F9080918A0286952A
:103CA0000E94CE1D089510925902809158028111F0
:103CB0000E94371E0E94051D089580918A028E7F02
:103CC00080938A0260918A0270918B0280918C02AB
:103CD00090918D020E94741880914B0280FF0FC05A
:103CE00080918A0281701F928F9383E493E09F9367
:103CF0008F930E94BF070F900F900F900F900E941C
:103D0000271D2FEF80E792E0215080409040E1F79F
:103D100000C000000E944E19089580914B0280FF60
:103D200010C080918A02809581701F928F938BEED4
:103D300093E09F938F930E94BF070F900F900F9077
:103D40000F9080918A0280FF03C00E945D1E08953B
:103D50000E94B21D089580918A028E7F80938A020C
:103D600080914B0280FF0CC01F921F9289E093E06C
:103D70009F938F930E94BF070F900F900F900F900B
:103D80000E94271D2FEF80E792E021508040904055
:103D9000E1F700C000000E944E1908950E94271DFF
:103DA0008091590281110AC081E08093590280916B
:103DB0008A028170809358020E94AB1E08950F936F
:103DC0001F93CF93DF9380915C028823B9F1809198
:103DD0005B02E0918A02E695E81BE0935402823090
:103DE00091F5F0E0ED53FA4FE491CE2FD0E002EAE6
:103DF00019E180915502882361F0109255020E94CA
:103E0000D825909353028093520210925702109239
:103E100056020E94D825E0915202F09153028E1B67
:103E20009F0B8F3F9F4750F4EC0FFD1FF093530201
:103E3000E093520282E592E0F8010995DF91CF917B
:103E40001F910F910895863049F4F0E0E054FA4F45
:103E5000E491CE2FD0E006EB19E1CBCF893051F4BD
:103E6000E695F0E0E354FA4FE491CE2FD0E006E27D
:103E70001BE1BFCF8F3051F4E695F0E0E654FA4FE6
:103E8000E491CE2FD0E003E61BE1B3CF853149F4B6
:103E9000F0E0E954FA4FE491CE2FD0E003ED1BE1BE
:103EA000A8CFC8E2D0E006E41CE1883109F4A1CF34
:103EB000833239F4E5EBF5E0C591D49106EC19E1D4
:103EC00098CFC4EFD1E008EC1CE1843209F491CF23
:103ED000C0EDD7E00EE418E18CCFFA01811101C0EA
:103EE000FB0109950895CF93DF93C82FD62F0E9429
:103EF00012198C1748F00E9412198D1728F40E948D
:103F00009B1DDF91CF9108958C2F0E94AE1DF9CF9C
:103F10001F93CF93DF93EC01FB01128111117EC03F
:103F20000E94BD118272CD3CFCE5DF0709F49CC004
:103F300008F041C0C73CECE5DE0709F481C0D8F4C5
:103F4000C43C9CE5D90709F471C030F4C33CDC459E
:103F500009F469C011E062C0C53C9CE5D90709F4C9
:103F60006AC04AED5AE16BEC7AE1C63CDC4591F758
:103F70000E946D1F53C0CA3CFCE5DF0709F46AC00C
:103F800068F4C83CECE5DE0709F45FC04BEE5AE18B
:103F90006CEF7AE1C93CDC4559F3DCCFCB3C9CE5C6
:103FA000D90709F45CC046E459E16EE279E1CC3C02
:103FB000DC45F1F2CFCFC23DFCE5DF0709F465C077
:103FC00098F4CF3C9CE5D90709F457C008F451C0D8
:103FD000C03DFCE5DF0709F455C0C13DDC4509F0F3
:103FE000B9CF6EE089E04BC0C53D9CE5D90709F427
:103FF00052C058F4C33DFCE5DF0709F449C0C43D95
:10400000DC4509F0A7CF88E135C0C63D9CE5D9075E
:1040100009F444C0CE35DD4509F09CCF812FDF91F6
:10402000CF911F9108950E948D1EF8CF4AEA5DE15D
:104030006BE97DE19DCF4BE95DE16AEA7DE198CFD7
:104040004BEC5AE16AED7AE193CF4CEF5AE16BEE1B
:104050007AE18ECF4EE15BE16DE07BE189CF4DE00F
:104060005BE16EE17BE184CF4EE259E166E479E108
:104070007FCF81E00E94AE1DD1CF65E082E00E943B
:10408000731FCCCF68E086E0FACF64E18FE0F7CF12
:1040900067E185E1F4CF62E289E1F1CF83E2EACF23
:1040A000539A4BB1477F5BB15860EFB7F8949B01CF
:1040B000220F331F260F371F280F391F28173907E4
:1040C00041F4EFBF8FE594E00197F1F700C00000E5
:1040D0000895DC016D91CD0178E05BB9000000C06E
:1040E00067FF4BB9660F000000C000C000C04BB9AD
:1040F00000C07A9591F7E2CFCF93DF93EC01FB01FB
:104100008281882309F433C1C430FDE5DF07C0F59F
:10411000CB3F9CE5D90730F49E0122503C45243129
:104120003105B0F50E94CC1290937B0280937A0205
:10413000C1318CE5D80709F4EEC008F069C0C93078
:10414000ECE5DE0709F4D5C0C8F5C5308CE5D80725
:1041500009F4C7C000F5C330ECE5DE0709F4B9C0C7
:1041600008F0BBC0C230DC4509F4ADC080917A02D2
:1041700090917B020E94DA120E94BD0C80E008C080
:10418000C236EDE5DE0771F2C63AFDE5DF0751F212
:10419000DF91CF91089580917A028062C7309CE5CB
:1041A000D90709F493C080917A028061C830DC4558
:1041B00008F48CC080917A02806488C080917A0271
:1041C0008B7FCD30FCE5DF0709F480C098F4809147
:1041D0007A028E7FCB309CE5D90709F477C08091B5
:1041E0007A028C60CC30DC4508F470C080917A0291
:1041F0008D7F6CC080917A028F7ECF30FCE5DF0727
:1042000009F464C008F47BC080917A028F7D5EC09F
:10421000CE3F9CE5D90709F47AC050F5C531FCE5DD
:10422000DF0709F486C098F480917A02837FC33156
:104230009CE5D90709F44AC008F471C00E94BD0C7E
:1042400090917A02892F97FB87F980583FC0CC3F25
:10425000FCE5DF0709F449C008F055C080917B02F6
:104260008160CB3FDC4509F081CF80937B027ECF1C
:10427000C230EDE5DE0709F468C0A8F4C1158DE58C
:10428000D80709F452C080917B028360C130DD45BC
:1042900060F380917B02982F909591708E7F892B8F
:1042A00090FB81F9E2CFC236EDE5DE0709F451C09B
:1042B000C63AFDE5DF0709F453C0C330DD4509F018
:1042C00055CF80E043C080917A02816080937A026A
:1042D0004DCF80917A028260F9CF80917A0284601A
:1042E000F5CF80917A028860F1CF80917B02826065
:1042F000BCCF0E94BD0C80917A028068E7CF80918C
:104300007A02877FE3CF80917B028E7FAECF809150
:104310007B028D7FAACF80917A028F7BD7CF0E94BC
:10432000BD0C80917A028F77D1CF80917B028C7FF8
:104330009CCF80917A0282FB992790F921E0922705
:1043400090FB82F990FB83F9C1CF81E00E94671353
:104350000DCF90917A02892F8F7E94FF8061B6CF26
:1043600090917A02892F8E7F90FF8160AFCF81E09C
:104370000FCFCF93C82F1F928F9382ED97E09F931B
:104380008F930E94BF0761E070E080E090E004C07E
:10439000660F771F881F991FCA95D2F70E940B0DD1
:1043A0000E94BD0C0F900F900F900F90CF91089529
:1043B000EF92FF920F931F93CF93DF938B3109F40A
:1043C000FFC008F09FC08B3009F4BBC008F07DC06F
:1043D000863009F4C9C048F4853009F4A1C08CEFD7
:1043E0009BE00E94260780E0CFC0873009F4D1C04F
:1043F0008830A9F70E94C7121F928F938FED9BE020
:104400009F938F930E94BF070E94C21283FB99273C
:1044100090F91F929F9382FB992790F91F929F9387
:1044200081FB992790F91F929F93982F91701F926B
:104430009F931F928F9386E99BE09F938F930E9497
:10444000BF070E94CC1287FB222720F91F922F93CF
:1044500086FB222720F91F922F9385FB222720F924
:104460001F922F9384FB222720F91F922F9383FB07
:10447000222720F91F922F9382FB222720F91F92D7
:104480002F9391FB222720F91F922F93292F217020
:104490001F922F9381FB222720F91F922F93282F01
:1044A00021701F922F939F938F9381EB9AE09F939C
:1044B0008F930E94BF078DB79EB788960FB6F8946A
:1044C0009EBF0FBE8DBF81E05FC0803109F490C0F8
:1044D00080F48E3009F083CF90914B02892F8B7F2F
:1044E00092FF846080934B0282FF7FC087E29CE052
:1044F00073C0863109F48CC0893109F070CF82E431
:1045000098E021C08A3249F190F4873211F128F401
:104510008E3108F464CF8D511DC0893209F05FCF10
:104520008AE69CE00E9426070E942C08CCCF8334A8
:1045300068F48A3308F091C0853359F0883309F064
:104540004ECF8EE099E00E942607BDCF833409F05C
:1045500046CF80E00E94B921B6CF8AE89CE00E9455
:1045600026070E946413AFCF80914B02807F809317
:104570004B0283EF98E00E94260786E89CE00E94A9
:10458000260781E080935D02CDB7DEB7E6E00C94AC
:104590005D2E90914B02892F8E7F90FF81608093DA
:1045A0004B0280FF03C08EE59CE0CDCF81E59CE00F
:1045B0000E94260780914B02817F80934B0283CF1C
:1045C00090914B02892F8D7F91FF826080934B02E7
:1045D00081FF08C084E49CE00E94260780914B0282
:1045E0008160EBCF86E39CE0AECF87E19CE0ABCF70
:1045F00090914B02892F877F93FF886080934B02B5
:1046000083FF03C08BE09CE0E7CF8EEF9BE09BCF66
:104610000E94E425162F072FF82EE92ED09179025B
:10462000C09121010E946124EF92FF920F931F938A
:104630001F92DF931F92CF931F928F9387ED97E086
:104640009F938F930E94BF078DB79EB70C960FB6AE
:10465000F8949EBF0FBE8DBF36CF89537BCF80E0CD
:1046600008950E942F230895CF93C82F80915D0253
:10467000882331F0813099F010925D0280E00DC006
:104680000E94BD118232D1F78C2F0E942F238111FD
:1046900019C08C2F0E94D8218170CF9108950E945B
:1046A000BD11823289F38C2F0E943123811119C0F0
:1046B000C431C9F050F4CB3061F08CEC97E00E942B
:1046C000260713C081E090E0E7CFC93261F0C8331C
:1046D000A1F783EF98E00E9426078EEC97E00E94F6
:1046E000260781E0D9CF10925D0280E0D5CFCF932D
:1046F000DF93EB0186319C4511F50E94BD119A8133
:10470000992399F08A7A91E009F490E090935E02FF
:10471000811109C089E20E9495110E94FE1180E07A
:10472000DF91CF91089585E3F6CF80915E028111EC
:1047300004C089E20E949D11F0CF85E3FBCF81E0A8
:10474000EFCF0F931F93CF93DF93C42FD22FFC0192
:1047500082818823C9F0409361020E94D8259093FA
:10476000600280935F0280E28C0F883040F4C77053
:1047700081E001C0880FCA95EAF70E94530ADF91D1
:10478000CF911F910F91089510916102141332C0BF
:1047900080915F02909160020E94F025883C910513
:1047A00048F5C0E2CD0F1D17B9F080E2810F8830C7
:1047B00040F4177081E001C0880F1A95EAF70E9453
:1047C0005A0AC83048F481E09D2F977001C0880FC5
:1047D0009A95EAF70E94530A802F0E944A0AC8302D
:1047E00070F6D77081E001C0880FDA95EAF70E9471
:1047F0005A0AC5CF80E28C0F883008F6C77081E076
:1048000001C0880FCA95EAF7F2CF0F939C01CB0144
:10481000243F4CE5340759F1A8F4293DFCE53F0756
:1048200001F12A3D4CE53407D1F1283D3C4591F496
:1048300006E221EE41EE68ED7CE50E94A12380E0D6
:104840000F910895263FFCE53F07E9F0B0F0273FC0
:104850003C45F9F0FC018281882339F11092610214
:10486000EFCF07E225EE45EE69ED7CE5E6CF06E207
:1048700021EE40EE64EF7CE5E0CF07E225EE44EE6A
:1048800065EF7CE5DACF06E221EE42EE66EF7CE5ED
:10489000D4CF07E225EE46EE67EF7CE5CECF08E207
:1048A00021E045EE6AED7CE5C8CF81E0C9CF909369
:1048B000C7018093C60108959093670280936602B2
:1048C0000895E0916602F0916702309729F0019017
:1048D000F081E02D0995089580E00895EF92FF9210
:1048E0000F931F93CF93DF938C01E0916602F091B9
:1048F0006702309791F10280F381E02D0995809154
:104900004B0282FF2AC080FF04C083EA9CE00E9421
:104910002607D0E0C0E08DE9E82E8CE0F82E8091EB
:104920004B0280FF0EC0F801EC0FFD1F80811F922B
:104930008F93FF92EF920E94BF070F900F900F90FE
:104940000F902196C830D10551F780914B0280FF1E
:1049500004C08BE99CE00E942607CDB7DEB7E6E0F5
:104960000C945D2E2091640230916502281739075E
:1049700071F09093650280936402E0916602F09179
:104980006702309721F00680F781E02D09950895A0
:1049900020916202309163022817390771F09093D9
:1049A000630280936202E0916602F09167023097A1
:1049B00021F00084F185E02D099508959C012E5F7A
:1049C0003F4FAC01485F5F4F80E02417350709F483
:1049D0000895F90191919F019923B9F38F5FF5CF64
:1049E000662349F0FC01329608962191261729F09A
:1049F000E817F907D1F780E0089581E008959C0158
:104A0000FC0132969FEF80E04191461751F09F3FA5
:104A100019F4411101C0982F8F5F8630A9F79F3F8D
:104A200009F40895290F311D97FD3A95F901628324
:104A30000895FC01329608962191261303C0DF01E8
:104A400011971C92E817F907B9F708950E94FF24FF
:104A500008950E9419250895029626E0FC011192FE
:104A60002A95E9F7089508950E9433250895811144
:104A700006C081E0809368020E943425089582E098
:104A8000F9CF83E0809368020E94342508950E9444
:104A90003725089581E0809368020E9434250895A7
:104AA0000E944A250895089508950E945425089566
:104AB000089508950E9453250895CF930E94582584
:104AC0000E942A170E945925C0E08C2F0E943016A0
:104AD000811105C0CF5FC730C1F7CF91089581E044
:104AE000FCCF85B7806885BF85B7806885BF08958E
:104AF0001F921FB61F9211248F939F93AF93BF9362
:104B000080916902811113C08091B0029091B1022D
:104B1000A091B202B091B3024196A11DB11D809344
:104B2000B0029093B102A093B202B093B302BF91CE
:104B3000AF919F918F911F901FBE1F9018958091EC
:104B4000B802843031F10E94A5081092690288E110
:104B500090E020E40FB6F894A895809360000FBE13
:104B60002093600083B7817F846083BF83B78160B7
:104B700083BF7894889583B78E7F83BF0FB6F894F0
:104B8000A895809160008861809360001092600019
:104B90000FBE08950E94BD0C0E94AC08089582E0EB
:104BA00084BD93E095BD9AEF97BD80936E00089504
:104BB0002FB7F8948091B0029091B102A091B20207
:104BC000B091B3022FBF08952FB7F8946091B0024F
:104BD0007091B1028091B2029091B3022FBF0895FB
:104BE0009C014FB7F8948091B0029091B102A091CE
:104BF000B202B091B3024FBF821B930B0895789419
:104C00001F921FB61F9211248F939F93AF93BF9350
:104C10008091B0029091B102A091B202B091B30222
:104C20000196A11DB11D8093B0029093B102A09393
:104C3000B202B093B302BF91AF919F918F911F9039
:104C40001FBE1F90189587E797E790930108809300
:104C5000000888E19AE00FB6F894A8958093600068
:104C60000FBE90936000FFCF88E19AE00FB6F894F2
:104C7000A895809360000FBE90936000FFCF809155
:104C8000780208950895CF93DF93EC0181E080933B
:104C9000E9008FEF9091E800815095FD06C095EDF9
:104CA0009A95F1F700008111F5CF8091E80085FF1A
:104CB00014C050E040E068E070E0CE010E9414298A
:104CC0008091E8008E778093E80088E0FE01A0E7FD
:104CD000B2E001900D928A95E1F7DF91CF910895AE
:104CE00080936C0270936E0260936D028091B802A3
:104CF000843001F582E08093E9008FEF9091E80025
:104D0000815095FD06C095ED9A95F1F7000081114F
:104D1000F5CF8091E80085FF0DC050E040E063E0F2
:104D200070E08CE692E00E9414298091E8008E7772
:104D30008093E8000895BC0184E00E9470260895E5
:104D4000BC0183E00E9470260895089589EC9CE0E0
:104D50000E9426078091B702811109C00E94A42AEF
:104D60000E94012B8091E20084608093E20008950C
:104D700085EC9CE00E9426071092B702089581EC12
:104D80009CE00E9426070E944A2508958DEB9CE036
:104D90000E9426076091B40281E0611101C080E0A9
:104DA0000E944125089589EB9CE00E94260790917E
:104DB000B80281E0943009F080E06091B4020E9472
:104DC0004725089520916B022F5F822F62E30E9496
:104DD0009A2D992319F020936B02089510926B027B
:104DE00080916F028823F1F08091B8028430C1F481
:104DF0009091E9009F702091EC00822F817020FD3E
:104E000080E8892B93E09093E9009091EB0090FF6C
:104E100004C09091EE0097FD08C08F708093E90068
:104E200010926F0208951092F1009091E80095FDA4
:104E3000FACF9091E80090FFF0CF9091E8009E7734
:104E40009093E800EACF42E061EC81E00E94202AE2
:104E500042E261EC82E00E94202A42E261EC83E0BF
:104E60000E94202A9091B80281E0943009F080E0FD
:104E70006091B4020E94372508958091BA02833070
:104E800009F461C030F48130D1F1823009F49EC060
:104E900008958A3009F48AC08B3009F46FC08930D4
:104EA00009F050C08091B902813209F04BC0809165
:104EB000BD029091BE02029708F044C08091E800C4
:104EC000877F8093E8008091E80082FF37C090914F
:104ED000F3008091F200029731F48091F10081306B
:104EE00011F0863021F48091F10080937802809156
:104EF000E8008B778093E8000E94542A23C08091B9
:104F0000B902813AF9F48091E800877F8093E80044
:104F10008091BD029091BE02892B61F468E080E728
:104F200092E070E00E9463298091E8008B77809383
:104F3000E800089560E090E080E0F3CF8091B8024F
:104F40008111C1CF08958091B902813AD9F780913A
:104F5000BD029091BE02892BA9F78091E800877F5E
:104F60008093E8008091E80080FFFCCF80912101D0
:104F70008093F1008091E8008E77BCCF8091B902D8
:104F8000813201F78091BD029091BE02892BD1F64A
:104F90008091E800877F8093E8000E94542A8091E6
:104FA000BB02809321010E94BD0C08958091B9023B
:104FB000813241F68091E800877F8093E8000E946B
:104FC000542A8091BC028093790208958091B9029D
:104FD000813A09F0B7CF8091E800877F8093E8009D
:104FE0008091E80080FFFCCF80917902C1CF9FB70C
:104FF000F89410926F029FBF9091B802943009F01C
:1050000048C02091E9002F703091EC00932F9170EF
:1050100030FD90E8922B23E02093E9002091EB00F3
:1050200020FF34C02091EE0027FF30C020916A029B
:10503000222321F02091E80025FF28C010926A0267
:1050400026E03091E80035FF14C08093F100809194
:10505000E80085FD27C08091E80080FFFCCF8091AB
:10506000E8008E778093E8009F709093E90080E0DD
:1050700008953091B802343049F43091EB0035FD99
:1050800005C0215041F481E080936A029F709093A3
:10509000E9008FEF0895EFE9FFE03197F1F700C0E5
:1050A0000000CFCF8FB7F89421E020936F028FBF1D
:1050B000DBCF84B7877F84BF0FB6F894A895809123
:1050C0006000886180936000109260000FBE80E8ED
:1050D00090E00FB6F89480936100909361000FBE4A
:1050E0000E94502508950E94A42A0E94012BE2EEFE
:1050F000F0E080818460808378940E947F2D089501
:1051000085E191E00E945C2408958091B802853089
:1051100051F485EB9CE00E9426078091B80285300F
:1051200019F00E94CA2508950E949F258091B60219
:10513000882399F30E945D25882379F30E94FE2835
:105140000E94BD0CEACF08950E94A7280895292F38
:1051500033272330310521F168F42130310509F47A
:1051600043C02230310509F444C090E080E030E0D3
:1051700020E026C02132310551F122323105A9F754
:105180006330710590F7FB01EE0FFF1FE754FE4FF0
:10519000208131816A547E4FFB01808190E010C0F4
:1051A00099278130910581F0009729F00297E9F65F
:1051B000EDECFCE002C0E1EFFCE0849190E09F01A7
:1051C000FA01318320830895E3EEFCE0F6CF6330EB
:1051D000710558F6660F771FFB01E154FE4F2081E1
:1051E000318189E090E0ECCF82E190E020E53DE084
:1051F000E7CF8BE590E025EF3CE0E2CF80E189BD91
:1052000082E189BD09B400FEFDCF8091D8008F7D79
:105210008093D8008091E00082608093E0008091CC
:10522000E00081FDFCCF0895AF92BF92CF92DF9254
:10523000FF920F931F93CF93DF936C01EB018A01D1
:105240000E94732AF82E811123C00115110539F02F
:10525000F80180819181C81BD90BC80ED91EB12CD1
:10526000A12C2097A9F08091E80085FD22C08091B3
:10527000E8008E778093E80001151105A1F0F80190
:1052800080819181A80EB91EB182A08285E0F82E9E
:105290008F2DDF91CF911F910F91FF90DF90CF90D5
:1052A000BF90AF9008950E94732A8823D1F2F82E00
:1052B000EFCFF60181916F018093F1002197FFEF0D
:1052C000AF1ABF0ACECFFC018091BF029091C002FD
:1052D00086179707A0F06115710529F49091E800F1
:1052E0009E779093E80090E06115710551F491115B
:1052F00008C08091E80082FF34C080E00895BC01BE
:10530000F2CF8091B8028823C1F18530C1F180913C
:10531000E80083FD30C08091E80082FDEACF8091F3
:10532000E80080FFE1CF8091F3002091F200382F58
:105330006115710519F02830310558F091E02830D9
:10534000310509F090E02091E8002E772093E800E5
:10535000CBCF81918093F100615071092F5F3F4F56
:10536000E7CF8091B802882341F0853041F08091E9
:10537000E80083FFBECF81E0089582E0089583E0D6
:105380000895FC018091BF029091C0028617970793
:10539000A0F06115710529F48091E8008E77809363
:1053A000E80090E06115710551F4911108C08091F9
:1053B000E80082FF35C080E00895BC01F2CF809103
:1053C000B8028823C9F18530C9F18091E80083FDD6
:1053D00031C08091E80082FDEACF8091E80080FF33
:1053E000E1CF8091F3002091F200382F6115710513
:1053F00019F02830310558F091E02830310509F0D6
:1054000090E08091E8008E778093E800CBCF849184
:105410008093F1003196615071092F5F3F4FE6CFC5
:105420008091B802882341F0853041F08091E800F6
:1054300083FFBDCF81E0089582E0089583E0089561
:10544000982F973028F08F708093E90081E00895BD
:105450009093E900242F762F50E0981731F0709147
:10546000EC002091ED005091F00021FD02C09F5F03
:10547000E8CF3091EB003E7F3093EB003091ED00B0
:105480003D7F3093ED003091EB0031603093EB00C5
:105490007093EC002093ED005093F0002091EE000B
:1054A00027FDE5CF80E008958091B90287FF13C002
:1054B0008091E80082FF06C08091E8008B7780939E
:1054C000E80004C08091B8028111F2CF0895809164
:1054D000B8028823D9F38091E80080FFF8CF80914B
:1054E000E8008E77ECCF2091E4003091E50095E65E
:1054F000A9012091EC00822F817020FF06C08091CD
:10550000E80080FF06C080E008952091E80022FDB9
:105510001AC08091B802882389F0853089F0809183
:10552000EB0085FD0FC02091E4003091E5004217AB
:105530005307F9F29150E1F684E0089582E008956E
:1055400083E0089581E008950E94132B0E941B2B95
:10555000E0EEF0E0808181608083E8EDF0E0808122
:105560008F77808319BCA7EDB0E08C918E7F8C93F0
:1055700080818F7E80831092B70208950F931F93CE
:10558000CF93DF930E94132B0E941B2BC8EDD0E01A
:1055900088818F77888388818068888388818F7DE0
:1055A000888319BC1092B8021092B4021092B6020D
:1055B0001092B50200EE10E0F80180818B7F8083AD
:1055C00088818160888342E060E080E00E94202A38
:1055D000E1EEF0E080818E7F8083E2EEF0E080817A
:1055E00081608083808188608083F80180818E7FE4
:1055F0008083888180618883DF91CF911F910F9193
:105600000895E8EDF0E080818F7E8083E7EDF0E0A3
:1056100080818160808384E082BF81E08093B702D3
:105620000E94BE2A0895E8EDF0E080818E7F80839D
:105630001092E20008951092DA001092E1000895AD
:105640001F920F920FB60F9211242F933F934F93F7
:105650005F936F937F938F939F93AF93BF93EF93DA
:10566000FF938091E10082FF0BC08091E20082FFF6
:1056700007C08091E1008B7F8093E1000E94E226C9
:105680008091DA0080FF19C08091D80080FF15C09A
:105690008091DA008E7F8093DA008091D90080FFBC
:1056A00096C080E189BD82E189BD09B400FEFDCFCD
:1056B00081E08093B8020E94A6268091E10080FFDD
:1056C00019C08091E20080FF15C08091E2008E7FBA
:1056D0008093E2008091E20080618093E2008091FB
:1056E000D80080628093D80019BC85E08093B8020E
:1056F0000E94C6268091E10084FF2BC08091E200C9
:1057000084FF27C080E189BD82E189BD89B5982FDA
:10571000917080FFFBCF8091D8008F7D8093D8005F
:105720008091E1008F7E8093E1008091E2008F7E86
:105730008093E2008091E20081608093E20080919A
:10574000B402882309F449C084E08093B8020E941F
:10575000D3268091E10083FF29C08091E20083FF7E
:1057600025C08091E100877F8093E10082E08093F3
:10577000B8021092B4028091E1008E7F8093E10024
:105780008091E2008E7F8093E2008091E200806150
:105790008093E20042E060E080E00E94202A809155
:1057A000F00088608093F0000E94BF26FF91EF9187
:1057B000BF91AF919F918F917F916F915F914F9129
:1057C0003F912F910F900FBE0F901F90189519BC0D
:1057D0001092B8020E94B82670CF8091E30087FD36
:1057E00093E09093B802B3CF1F920F920FB60F922F
:1057F00011242F933F934F935F936F937F938F93D6
:105800009F93AF93BF93CF93DF93EF93FF93D09189
:10581000E900DF708091EC00C82FC17080FDC0E806
:105820001092E9008091F000877F8093F0007894D7
:105830000E94382C1092E9008091F00088608093DB
:10584000F000CD2BCF70C093E900FF91EF91DF9175
:10585000CF91BF91AF919F918F917F916F915F9108
:105860004F913F912F910F900FBE0F901F90189561
:10587000AAE2B0E0EEE3FCE20C94442E89EB92E065
:105880002091F100FC012193CF01F2E0813C9F07C0
:10589000B9F70E943D278091E80083FF1EC18091E7
:1058A000B9029091BA029A3008F017C1E92FF0E0DE
:1058B000E452F14D0C94FE2D803899F0823809F0B5
:1058C0000CC18091BD028F70873008F006C18093B3
:1058D000E9008091EB0085FB882780F91092E900B0
:1058E00006C08091B5029091B602911182609091AC
:1058F000E800977F9093E8008093F1001092F10008
:105900008091E8008E77E5C0882309F4D3C0823007
:1059100009F0E3C08091BB028111D6C08091BD0225
:105920008F702FEF280F263008F0D7C08093E90042
:105930002091EB0020FFC8C0933031F48091EB0040
:1059400080628093EB00C0C09091EB0090619093D7
:10595000EB0021E030E001C0220F8A95EAF72093A6
:10596000EA001092EA008091EB008860EACF811192
:10597000B4C01091BB021F778091E3008078812B27
:105980008093E3008091E800877F8093E8000E9485
:10599000542A8091E80080FFFCCF8091E30080686A
:1059A0008093E30082E0111183E08093B80295C0F8
:1059B0008058823008F091C08091BB029091BC0267
:1059C0008C3D23E09207A1F583E08A838AE28983F4
:1059D0004FB7F894DE01139620E03EE051E2E32F4A
:1059E000F0E050935700E49120FF03C0E295EF7080
:1059F0003F5FEF708E2F90E0EA30C0F0C7968D9336
:105A00009D932F5F243159F74FBF8091E800877F26
:105A10008093E8006AE270E0CE0101960E9463295B
:105A20008091E8008B778093E80057C0C096E7CF5D
:105A30006091BD027091BE02AE014F5F5F4F0E9448
:105A4000A428BC01892B09F448C09091E800977FF5
:105A50009093E80089819A810E94C129E1CF803822
:105A6000E1F58091E800877F8093E8008091B4029F
:105A70008093F10045CF811130C09091BB029230EC
:105A800060F58091E800877F8093E8009093B402EE
:105A90000E94542A8091B402882311F084E005C04A
:105AA0008091E30087FDFACF81E08093B8020E94E5
:105AB000232713C08091BB02813079F481E09330B9
:105AC00009F080E08093B6021092E9008091E8002E
:105AD000877F8093E8000E94542A8091E80083FF2A
