:100000000C94D3060C94F0060C94F0060C94F006B5
:100010000C94F0060C94F0060C94F0060C94F00688
:100020000C94F0060C94F0060C94CE2B0C94A22C9D
:100030000C9440260C94F0060C94F0060C94F006F8
:100040000C94F0060C94F0060C94F0060C94F00658
:100050000C94F0060C94C7260C94F0060C94F00651
:100060000C94F0060C94F0060C94F0060C94F00638
:100070000C94F0060C94F0060C94F0060C94F00628
:100080000C94F0060C94F0060C94F0060C94F00618
:100090000C94F0060C94F0060C94F0060C94F00608
:1000A0000C94F0060C94F0060C94F0062B0014004F
:1000B0001A00080015001700E100040016000700F0
:1000C00009000A00E0001D001B00060019000500E1
:1000D0001C0018000C00120013002A000B000D0079
:1000E0000E000F00330034001100100036003700FE
:1000F00038002800E20022522C002152E743000081
:1001000001001E001F00200021002200010000004D
:1001100000000000000000000100000000000000DE
:1001200000000000230024002500260027004C00CA
:100130005000510052004F00350035024E004B0078
:10014000B600B700B500B4000100010000000100D6
:100150000100000035001E021F02200221022202BF
:10016000010000000000000000000000010000008D
:1001700000000000000000002302240225022D02DE
:1001800031024C00000000000000000031000000BF
:10019000000000000000000000000000010001005D
:1001A0002A00010001000000290020780000000062
:1001B000000000003A003B003C003D003E003F00D4
:1001C00040004100420043004400450000000000A0
:1001D00000000000260227022D0057002E0000001C
:1001E0002F023002A800AA00A90000002F00300052
:1001F00001000100000001000100000044454255DB
:10020000473A2064697361626C65642E0A00444554
:100210004255473A20656E61626C65642E0A000A99
:100220000025303258006C65645F7461736B3A204E
:10023000004F6E6573686F743A2061637469766508
:100240003A2025640A000A0025303862003A20006E
:1002500025303258000A722F632030313233343562
:1002600036370A007267626C696768742074696D5A
:1002700065722064697361626C652E0A0072676240
:100280006C696768742074696D657220656E61625F
:100290006C65642E0A007267626C6967687420730B
:1002A000657420687376205B4E4F454550524F4D24
:1002B0005D3A2025752C25752C25750A007267621C
:1002C0006C696768742073657420687376205B4579
:1002D0004550524F4D5D3A2025752C25752C2575BE
:1002E0000A007267626C69676874207261696E6285
:1002F0006F7720736574206873763A2025642C2507
:10030000642C25642C25750A007267626C69676825
:10031000742064697361626C65205B4E4F45455083
:10032000524F4D5D3A207267626C696768745F6313
:100330006F6E6669672E656E61626C65203D202573
:10034000750A007267626C6967687420646973611A
:10035000626C65205B454550524F4D5D3A20726797
:10036000626C696768745F636F6E6669672E656E3D
:1003700061626C65203D2025750A007267626C69B8
:1003800067687420656E61626C65205B4E4F454501
:1003900050524F4D5D3A207267626C696768745FB6
:1003A000636F6E6669672E656E61626C65203D20C5
:1003B00025750A007267626C6967687420656E61F2
:1003C000626C65205B454550524F4D5D3A20726727
:1003D000626C696768745F636F6E6669672E656ECD
:1003E00061626C65203D2025750A007267626C6948
:1003F00067687420746F67676C65205B4545505271
:100400004F4D5D3A207267626C696768745F636F15
:100410006E6669672E656E61626C65203D2025758C
:100420000A007267626C69676874206D6F6465208A
:100430005B4E4F454550524F4D5D3A2025750A00A1
:100440007267626C69676874206D6F6465205B45D4
:100450004550524F4D5D3A2025750A007267626C17
:10046000696768745F696E6974207267626C696736
:1004700068745F636F6E6669672E6D6F6465203D9B
:1004800020302E2057726974652064656661756C32
:10049000742076616C75657320746F2045455052E9
:1004A0004F4D2E0A007267626C696768745F696EEF
:1004B0006974206565636F6E666967206973206E75
:1004C0006F7420656E61626C65642E0A00726762EB
:1004D0006C696768745F696E6974207374617274A3
:1004E000210A007267626C696768745F696E69747B
:1004F0002063616C6C65642E0A007267626C6967C8
:1005000068745F636F6E6669672E737065656420DB
:100510003D2025640A007267626C696768745F63D6
:100520006F6E6669672E76616C203D2025640A0037
:100530007267626C696768745F636F6E6669672E65
:10054000736174203D2025640A007267626C6967DC
:1005500068745F636F6E6669672E687565203D20FD
:1005600025640A007267686C696768745F636F6E00
:100570006669672E6D6F6465203D2025640A0072F0
:1005800067626C696768745F636F6E6669672E7611
:10059000656C6F63696B6579203D2025640A007284
:1005A00067626C696768745F636F6E6669672E6502
:1005B0006E61626C65203D2025640A007267626C82
:1005C000696768745F636F6E66696720454550525E
:1005D0004F4D3A0A001E0F0500047F3F1F6432147E
:1005E000643214783C1E1E140A052223252628296D
:1005F0002A2C2D2F3032333536383A3B3D3E40429F
:10060000434547494A4C4E5051535557595A5C5EE1
:100610006062646668696B6D6F71737577797B7DF5
:100620007F81838587898A8C8E90929496989A9CF4
:100630009E9FA1A3A5A7A8AAACAEAFB1B3B4B6B80C
:10064000B9BBBCBEBFC1C2C3C5C6C7C9CACBCCCD6E
:10065000CED0D1D2D2D3D4D5D6D7D7D8D9D9DADA49
:10066000DBDBDBDCDCDCDCDCDDDDDDDDDCDCDCDCC9
:10067000DCDBDBDBDADAD9D9D8D7D7D6D5D4D3D2FD
:10068000D2D1D0CECDCCCBCAC9C7C6C5C3C2C1BFDB
:10069000BEBCBBB9B8B6B4B3B1AFAEACAAA8A7A53F
:1006A000A3A19F9E9C9A98969492908E8C8A8987FB
:1006B0008583817F7D7B79777573716F6D6B6968D9
:1006C000666462605E5C5A5957555351504E4C4AAD
:1006D0004947454342403E3D3B3A38363533323058
:1006E0002F2D2C2A292826252322FFAA7F554000BA
:1006F00001010101010101010102020202020202E3
:1007000002020303030303030303040404040404B5
:10071000040505050505060606060607070707077B
:1007200008080808090909090A0A0A0B0B0B0C0C2E
:100730000C0D0D0D0E0E0E0F0F0F101011111112CA
:100740001213131414151516161717181819191A49
:100750001A1B1B1C1D1D1E1E1F20202122222324AC
:1007600024252626272829292A2B2C2D2D2E2F30EB
:10077000313232333435363738393A3B3C3D3E3FFF
:10078000404142434445464748494A4C4D4E4F50EC
:10079000515354555658595A5B5D5E5F61626465AA
:1007A0006668696B6C6D6F7072737577787A7B7D34
:1007B0007E8082838587888A8C8E8F919395969888
:1007C0009A9C9EA0A2A3A5A7A9ABADAFB1B3B5B7A4
:1007D000BABCBEC0C2C4C6C9CBCDCFD1D4D6D8DB7B
:1007E000DDDFE2E4E7E9EBEEF0F3F5F8FAFDFF3FD9
:1007F00000433E20004C25640A000A092D20537452
:1008000061747573202D0A686F73745F6B6579620C
:100810006F6172645F6C65647328293A20253032F9
:10082000580A6B6579626F6172645F70726F746F82
:10083000636F6C3A20253032580A6B6579626F61BC
:1008400072645F69646C653A20253032580A7469B5
:100850006D65725F72656164333228293A202530F4
:10086000386C580A002573000A092D20436F6E73F7
:100870006F6C65202D0A4553432F713A09717569D4
:10088000740A000A092D204D61676963202D0A440E
:100890003A094465627567204D6573736167652029
:1008A000546F67676C650A583A094D6174726978CC
:1008B000204465627567204D6F646520546F6767DB
:1008C0006C65202D2053686F77206B657970726599
:1008D0007373657320696E206D6174726978206727
:1008E0007269640A4B3A094B6579626F61726420E0
:1008F000446562756720546F67676C65202D2053CF
:10090000686F77206B65797072657373207265709C
:100910006F72740A4D3A094465627567204D6F75B0
:10092000736520546F67676C650A563A095665729D
:1009300073696F6E0A533A095374617475730A438D
:100940003A09416374697661746520436F6E736F11
:100950006C65204D6F64650A46312D4631303A0989
:1009600053776974636820746F204C6179657220D5
:10097000302D392028463130203D204C30290A3096
:100980002D393A0953776974636820746F204C617C
:1009900079657220302D390A47524156453A09533C
:1009A000776974636820746F204C617965722030B8
:1009B0002028616C7465726E617465290A423A0977
:1009C0004A756D7020746F20426F6F746C6F616434
:1009D00065720A4553433A094A756D7020746F2059
:1009E000426F6F746C6F616465722028616C74650E
:1009F000726E617465290A453A095072696E7420F5
:100A0000454550524F4D2053657474696E67730AA3
:100A10004241434B53504143453A09436C6561722F
:100A200020454550524F4D0A006B65796D61705FEE
:100A3000636F6E6669672E7261773A20253032588F
:100A40000A2E737761705F636F6E74726F6C5F6391
:100A50006170736C6F636B3A2025750A2E63617049
:100A6000736C6F636B5F746F5F636F6E74726F6CC8
:100A70003A2025750A2E737761705F6C63746C5F22
:100A80006C6775693A2025750A2E737761705F72FD
:100A900063746C5F726775693A2025750A2E7377E7
:100AA00061705F6C616C745F6C6775693A20257565
:100AB0000A2E737761705F72616C745F726775691B
:100AC0003A2025750A2E6E6F5F6775693A20257585
:100AD0000A2E737761705F67726176655F65736315
:100AE0003A2025750A2E737761705F6261636B73BC
:100AF0006C6173685F6261636B73706163653A20F8
:100B000025750A2E6E6B726F3A2025750A2E737743
:100B100061705F6573636170655F636170736C6F53
:100B2000636B3A2025750A0064656275675F636FC1
:100B30006E6669672E7261773A20253032580A2E28
:100B4000656E61626C653A2025750A2E6D6174725E
:100B500069783A2025750A2E6B6579626F61726437
:100B60003A2025750A2E6D6F7573653A2025750A32
:100B7000006565636F6E6669673A0A6465666175EC
:100B80006C745F6C617965723A2025750A003F00CC
:100B90000A6D6F7573653A206F66660A000A6D6F9D
:100BA0007573653A206F6E0A000A6B6579626F6132
:100BB00072643A206F66660A000A6B6579626F613B
:100BC00072643A206F6E0A000A6D61747269783A35
:100BD000206F66660A000A6D61747269783A206F48
:100BE0006E0A000A64656275673A206F66660A00DD
:100BF0000A64656275673A206F6E0A000A0A4A75D0
:100C00006D70696E6720746F20626F6F746C6F61B6
:100C10006465722E2E2E2000433E2000436C6561D9
:100C200072696E6720454550524F4D0A000A0025F3
:100C300030325820006B6579626F6172645F726553
:100C4000706F72743A2025303258207C2000737502
:100C50007370656E64696E67206B6579626F61722F
:100C6000640D0A005B575D005B535D005B525D00E5
:100C70005B445D005B435D00140372006500760019
:100C8000690075006E0067003400310000000C033D
:100C90006700740069007000730000000403090419
:100CA00009025B00030100A0FA090400000103012E
:100CB00001000921110100012244000705810308F8
:100CC00000010904010001030000000921110100D5
:100CD00001223200070582032000010904020002FC
:100CE00003000000092111010001222200070583F1
:100CF0000320000107050303200001120100020088
:100D00000000080778CBDC0100010200010631FF7A
:100D10000974A1010975150026FF00952075088149
:100D2000020976150026FF00952075089102C0057E
:100D3000010980A101850319012AB700150126B711
:100D400000950175108100C0050C0901A101850401
:100D500019012AA002150126A00295017510810033
:100D6000C005010906A101050719E029E7150025BD
:100D70000195087501810295017508810105071922
:100D80000029FF150026FF0095067508810005085B
:100D90001901290515002501950575019102950197
:100DA00075039101C00011241FBECFEFDAE0DEBF52
:100DB000CDBF12E0A0E0B1E0E8E3F1E602C00590AB
:100DC0000D92A239B107D9F723E0A2E9B2E001C040
:100DD0001D92AA3CB207E1F70E9489170C94463095
:100DE0000C940000FF93EF93E0919202F091930234
:100DF000309709F00995EF91FF910895FC018591D5
:100E0000803011F0EFDFFBCF0895FF27E0E230E202
:100E100047FF0CC0419597FF09C0EDE260957095C2
:100E200080959095611D711D811D911D27FF02C048
:100E3000219530E350E2AA27660F771F881F991F7C
:100E4000AA1FA41710F0A41B63955A95A9F7AA30FE
:100E500008F0A95FA05DAF93F39561157105810559
:100E6000910541F7ED3211F4EF93F395F21718F471
:100E70003F93F395FBCF8F91B5DFFA95E1F7089596
:100E8000E991F9918591803021F0853219F0AADF3E
:100E9000F9CF089520E0E89455915532C1F35033CD
:100EA00011F4689455915A3348F4505390F3220F3B
:100EB000022E220F220F200D250FF4CF0EF42195C4
:100EC00089919991533619F3533729F1533559F1D3
:100ED000BC0188279927E8945C3621F4899199917F
:100EE00068945591543639F446EF7EF077FF0DC083
:100EF0008FEF9FEF0AC055374AE039F0583540E18F
:100F000021F0523642E009F00895FF93EF937DDF20
:100F1000EF91FF91B7CFFF93EF93FC018191803068
:100F2000B9F360DFFBCFFF93EF9368DFF1CFDF937F
:100F3000CF93CDB7DEB72596A3DFCF91DF9108958C
:100F40008430B8F46730A8F4463098F450E096E066
:100F5000699F400D511D1124FA019AE2899FE00D0D
:100F6000F11D1124EE0FFF1FE455FF4F8591949161
:100F7000089581E090E008950E94A007089581E01F
:100F800008950E94BF07089581E008950E94BF0759
:100F900008950E94C607089508950E94CC070895F9
:100FA000A6E0B0E0E6EDF7E00C94F22E49835A8318
:100FB0009E833091990289819A8131111AC03E81B4
:100FC000332399F0222389F00E94110E182F682FE5
:100FD00089819A810E94ED0D69817A81812F0E9419
:100FE000E3142696E3E00C940E2F0E94FF0D182FB9
:100FF000F3CF0E94110E69817A81F1CFFC01262F77
:101000004081518162817381848195810E94D007E2
:101010000895CF93DF93EC0161E00E94FE07BE01CB
:101020000E94C107DF91CF910895CF93DF93EC0128
:1010300060E00E94FE07BE010E94CD07DF91CF91C4
:10104000089581E008950E9421080895CF93C82F44
:101050000E94C20C8C2F0E9423082FEF84E39CE097
:10106000215080409040E1F700C00000CF910895EA
:1010700081E00E9426080E94EB26089580E00E94ED
:1010800026080E94FC2608950F931F93CF93DF93A9
:101090008C0161E00E94FE07EC01F801858181115D
:1010A0000E94B120B801CE010E94C907811106C07B
:1010B00080E0DF91CF911F910F910895B801CE018B
:1010C0000E94A3248823A1F3B801CE010E946323C8
:1010D000882371F3B801CE010E943923882341F39C
:1010E000B801CE010E94D020882311F3F801858138
:1010F000882369F0C330FCE7DF0781F160F4C13079
:10110000ECE7DE0769F1C0F4C115DC4791F0C801D6
:101110000E94C407CECFCB35ECE7DE0739F1CC35E2
:10112000FCE7DF0701F1CA35DC4789F70E943B1273
:10113000EECF0E943808BCCF90911D03892F8E7F7F
:1011400090FF816080931D0380FF05C08EE092E0D8
:101150000E94FE06ADCF8CEF91E0FACF0E944312C1
:101160000E943E08A5CF0E943112D1CF0E943F12AB
:10117000CECF0E941D260E94FC080E9401200895E7
:101180000E9400090E94921F0E94222608958295C3
:1011900090E09C01220F331F220F331F2C7C95956A
:1011A0008795959587958373282B30E0C901880F23
:1011B000991F8A7A359527952575822B089508956C
:1011C00081E008950895CF93DF93D82F0E94E0081F
:1011D000C82F882319F08D2F0E94E2088C2FDF91F1
:1011E000CF9108950895CF93C82F0E94DF088C2FC8
:1011F0000E94E308CF91089580E00E94F3080895CB
:101200000E94EC240E94F3080895CF930E94EC24DE
:10121000C82F809194028C1789F1C09394020E9488
:10122000AC266093950270939602809397029093F8
:10123000980280911D0382FF1EC080FF1CC086E2C1
:1012400092E00E94FE0680911D0380FF14C01F9251
:10125000CF9381E292E09F938F930E9497078091B2
:101260001D030F900F900F900F9080FF04C08FE12F
:1012700092E00E94FE068C2F0E94F308CF91089501
:10128000ADE0B0E0E6E4F9E00C94F32E488759872E
:101290006A877B878C879D8791110E945E111F82D0
:1012A00086E0FE013896DE01119601900D928A9536
:1012B000E1F78D8181110DC029813A814B815C81DB
:1012C0006D817E818F810E94A8102D96E2E00C94A2
:1012D0000F2FCE0101960E9409088111EDCFF5CFA5
:1012E000FC012481213021F4808191810E94430EF0
:1012F0000895CF93C82F8823C9F08238C9F40E947B
:10130000F92481FD13C089E30E94E0250E94CD11DC
:101310002FEF87EE93E0215080409040E1F700C02E
:10132000000089E30E94E8250E94CD11CF91089525
:101330008338A1F40E94F92480FDF8CF83E50E9450
:10134000E0250E94CD112FEF81EE94E021508040E6
:101350009040E1F700C0000083E5E4CF8438A1F4B9
:101360000E94F92482FDE2CF87E40E94E0250E94DA
:10137000CD112FEF81EE94E0215080409040E1F7B5
:1013800000C0000087E4CECF8CEF8C0F813A98F438
:101390008C2F0E94F6228111C9CF8C2F0E94A52587
:1013A000882329F08C2F0E94E8250E94CD118C2FD4
:1013B0000E94E025B9CF80E28C0F883048F4C770D6
:1013C00081E001C0880FCA95EAF70E944111ACCFB5
:1013D000EBE5EC0FE33040F4F0E0E65AFE4F80819D
:1013E00090E00E944625A2CFC85ACB3108F09ECF8C
:1013F000EC2FF0E0EE0FFF1FEC5DFE4F808191813E
:101400000E946B2593CF882309F44DC0823879F46C
:101410000E94F92481FF47C089E30E94E0250E94D1
:10142000CD1189E30E94E8250E94CD1108958338EB
:1014300059F40E94F92480FF36C083E50E94E0251C
:101440000E94CD1183E5EECF843859F40E94F9242F
:1014500082FF29C087E40E94E0250E94CD1187E425
:10146000E1CF9CEF980F913AE8F290E2980F983014
:1014700050F4877091E001C0990F8A95EAF7892F9F
:101480000E944711D1CF9BE5980F933028F490E04C
:1014900080E00E9446250895885A8B3120F490E020
:1014A00080E00E946B2508951F93CF93DF93182F40
:1014B000EB010E947909209739F4812F0E94030AD9
:1014C000DF91CF911F9108958FE99FE00197F1F788
:1014D00000C000002197EFCF70E060E0893311F485
:1014E00060E570E00E94540A0895882321F00E946C
:1014F00041110E94CD110895882321F00E944711C7
:101500000E94CD110895B0E0A0E0E9E8FAE00C9463
:10151000EC2E6C01D62FC72FFC0115810681029598
:101520000F700E943711E82E8823F9F0E12E112365
:10153000E1F08C2F807F803461F080E28D0F883065
:1015400008F18C2F807E803221F4D230D8F0002335
:10155000C9F08091810382FF15C082E00E94F211E0
:101560000E94371191E0E82EE926BC2EB2949FE04C
:10157000B922FBE0FB15B8F1EB2DF0E0E85BFF4C86
:101580000C94AC2EE12CF1CF0C2F0F70C07F11F01A
:101590000295007F112399F0002359F080E28D0F0E
:1015A000883010F0D11107C0802F0E9441110E9495
:1015B000CD118D2F5AC0802F0E945111F8CF8D2F41
:1015C0000E94030A002379F080E28D0F883010F02A
:1015D000D11104C0802F0E94471103C0802F0E94A8
:1015E00057110E94CD11EB2DE850FF0B349720F4DA
:1015F0000E94EC240E94F308EE2089F00E9433112F
:1016000080FD0DC0F60115820E942D110E944B0D28
:10161000C6010E948D0C0E942D110E945B0DCDB75A
:10162000DEB7E9E00C94082F2C2F2F70F22EC07F2C
:10163000C03219F0F29480EFF822DD2341F0D1306E
:10164000D1F1112309F444C00023F1F0B2CF80910D
:10165000810382FD15C0112359F0FF2029F08F2D41
:101660000E9441110E94CD1180E00E947909BBCFF8
:1016700080E00E94030AFF2009F4B5CF8F2DABCF85
:10168000112369F0011104C08F2D0E94750AABCFA0
:10169000013009F0A8CF8F2D0E947511A4CF011140
:1016A000A2CF8F2D0E947C0A8F2D0E9481118F2D39
:1016B0000E94651198CF112321F0063008F093CFD6
:1016C000E3CF053008F08FCF8F2D0E947C0A8BCF9F
:1016D0000023D1F3D93349F43FEF87EE93E0315043
:1016E00080409040E1F700C000008D2F0E94030A67
:1016F0007ACF8C2F86958695837069F0813009F0BA
:1017000072CF8D2F9C2F9370111102C080E090E05A
:101710000E946B2568CF8D2F9C2F9370111102C0F2
:1017200080E090E00E9446255ECF8C2F8370A1F56B
:10173000111159CF4D2F429546954770440F440FD4
:101740002D2F2F7030E0042E02C0220F331F0A9479
:10175000E2F790E080E0D4FF09C08FE090E002C0A3
:10176000880F991F4A95E2F780959095C695C69582
:10177000C370822B932BC23049F058F4C13019F05A
:101780000E941B0D30CF0E94120D2DCF0E94240D00
:101790002ACF0E940F0D27CF8695112311F08C2F91
:1017A0008170882309F41FCF4D2F429546954770CD
:1017B000440F440F2D2F2F7030E0042E02C0220F53
:1017C000331F0A94E2F790E080E0D4FF09C08FE075
:1017D00090E002C0880F991F4A95E2F78095909596
:1017E000C695C695C370822B932BC23049F058F42E
:1017F000C13019F00E94860DF6CE0E947D0DF3CE09
:101800000E948F0DF0CE0E94330DEDCECF701123CC
:1018100029F08C2F0E944B0D8D2F37CF8D2F0E94DA
:101820007C0A8C2F0E945B0DDECED23F41F160F42A
:10183000D03FB9F0D13F81F0112309F446C0011126
:10184000B8CE8C2F8F711FC0D33F01F1D43FA1F7C9
:101850008091810382FD24C08C2F8F71112311F39D
:1018600012C0112341F0053008F0BDCE8C2F8F71CE
:101870000E946D0DB8CE063008F0B5CEF7CF8C2F94
:101880008F711111CFCF0E944B0DADCE112329F0D6
:101890008C2F8F710E943F0DA6CE0E943A0DA3CED1
:1018A000112349F0CF718C2F0E944B0D63E08C2FD8
:1018B0000E94D41198CE81E00E94F211023008F407
:1018C00092CE82E00E94F2118ECE002359F0D933DD
:1018D00009F00BCFEFEFF7EE23E0E150F0402040AE
:1018E000E1F701CF8C2F8F719DCF0F931F93CF9373
:1018F000DF93EC01688179818D810E944E0E8C010D
:101900000E94980D0E940E0DB801CE010E94830A1C
:10191000DF91CF911F910F910895CF93DF93EC0149
:101920008C81882399F0CE010E944408811111C056
:101930000E943711882351F08D81882339F08091DE
:10194000810382FF03C082E00E94F211DF91CF91F8
:101950000895CE010E94750CCE010E941508F6CFA5
:1019600090E080E00E94462590E080E00E946B2598
:101970000E945E110E94CD1108950E94F0250E94E0
:10198000B00C08950E944E110E94BD0C08959295CE
:101990009F70963091F058F4925F9F70923058F497
:1019A000803F19F030F4883E30F481E008959A5F6A
:1019B000F4CF843FD1F380E00895883EB0F3813FB7
:1019C000D1F7F3CFFC012481222339F0808191816A
:1019D0000E94430E0E94C70C089580E00895A6E07F
:1019E000B0E0E5EFFCE00C94F32E2696E2E00C94D8
:1019F0000F2FA7E0B0E0EFEFFCE00C94F32E27965A
:101A0000E2E00C940F2F08950E94030D08950E94A8
:101A1000040D9093B5028093B402089508950E9436
:101A2000070D08952091B4023091B502822B932BBB
:101A30000E94070D08952091B4023091B5028223CF
:101A400093230E94070D08952091B4023091B502AE
:101A5000822793270E94070D08950E94030D089581
:101A60000E942D0D08950E94300D9093B302809333
:101A7000B202089590E080E00E94330D089521E0C5
:101A800030E0A90102C0440F551F8A95E2F7CA0150
:101A90000E94330D089521E030E002C0220F331F71
:101AA0008A95E2F78091B2029091B302822B932B38
:101AB0000E94330D089521E030E002C0220F331F51
:101AC0008A95E2F7209530958091B2029091B30209
:101AD000822393230E94330D089521E030E002C059
:101AE000220F331F8A95E2F78091B2029091B302E0
:101AF000822793270E94330D08952091B2023091DE
:101B0000B302822B932B0E94330D08952091B202D1
:101B10003091B302822393230E94330D08952091C4
:101B2000B2023091B302822793270E94330D0895A9
:101B30000895262F277091E001C0990F2A95EAF7A2
:101B400023E0769567952A95E1F7660F771F660F74
:101B5000771FFA01E60FF71F50E040E0682F70E0B2
:101B60008191DF0111979B01042E02C036952795C4
:101B70000A94E2F7217021952827292328272C93FE
:101B80004F5F5F4F4430510559F70895A82FA77054
:101B900023E0969587952A95E1F7880F991F880F7E
:101BA000991FFB01E80FF91F50E040E080E0219110
:101BB00030E00A2E02C0369527950A94E2F721708C
:101BC0003327042E01C0220F0A94EAF7822B4F5FBD
:101BD0005F4F4430510559F70895262F973070F420
:101BE000863060F4682F70E086E0989F600D711D6C
:101BF00011244AE952E0822F0E94990D0895292F5D
:101C0000973068F4863058F490E06AE972E036E084
:101C1000239F800D911D11240E94C60D089580E020
:101C20000895B0E0A0E0E7E1FEE00C94EC2E7C012A
:101C30000091B2021091B3028091B4029091B5026A
:101C4000082B192BCFE0D0E0CC24C394D12CBC2E90
:101C5000C6010C2E02C0880F991F0A94E2F7802358
:101C60009123892B49F4219790F7B12C8B2DCDB777
:101C7000DEB7E9E00C94082FB7018C2F0E94EF1417
:101C8000019789F3F3CFCF93DF93EC010E94110EFC
:101C9000BE010E94EF14DF91CF9108951F93CF935F
:101CA000DF93EB0190919902992339F0CB010E94C7
:101CB000430EDF91CF911F910895882369F0CB01E6
:101CC0000E94110E182F682FCE010E94ED0DBE014B
:101CD000812F0E94EF14EDCFCB010E94FF0D182F32
:101CE000F6CF1F93CF93DF93C091B60217E0809198
:101CF000B7028C1304C0DF91CF911F910895D0E0FB
:101D00001C9FF0011D9FF00D1124E854FD4F208110
:101D10003181428153816481758186810E94F90CF1
:101D20002196C770E4CF2091F0023091F1024091EA
:101D3000F2025091F3026091F4027091F5028091E9
:101D4000F6020E94F90C0895CF93DF938091F6027A
:101D5000807F09F04DC08091F502882309F448C0C6
:101D6000E091B6025091B702C091F102D091F00219
:101D70006091F2027091F30247E05E17C9F18E2F75
:101D800090E0E49FF0011124E854FD4F24812223C8
:101D900091F1489FF001499FF00D1124DF01A854F3
:101DA000BD4F11962C9111972C1325C02C912D13FA
:101DB00022C015962C91159721111DC012962D91B8
:101DC0003C91261B370B283C3105A8F48091F60284
:101DD0008F7080618093F602E254FD4F80818F7096
:101DE0008061808380EF92E00E948D0C0E94710ED2
:101DF000DF91CF910895FC013196E770BECF482F57
:101E00002091B6029091B70257E0291302C080E0FA
:101E1000089530E0529FF001539FF00D1124E854D3
:101E2000FD4F8181681306C08081481303C08581FE
:101E30008111EECF2F5F3F4F2770E7CFA4E1B0E0D5
:101E4000E4E2FFE00C94E92E8C0186E0F801DE016B
:101E50001F9601900D928A95E1F7F8018481E58043
:101E600090EFA92E92E0B92E9091F40291111FC02B
:101E70008823D1F0EE20A9F0C8010E94E20CF82ED0
:101E8000882379F087E0F801D50101900D928A95B9
:101E9000E1F7C5010E9470090E94A40E0E94930EF2
:101EA0005FC0C8010E948D0CFF24F39459C0C0800C
:101EB000D18082809380F090F5022091F2023091DF
:101EC000F302A401421B530BFF2009F4F9C0483C64
:101ED000510508F0A7C0882309F442C09091F1028F
:101EE0008091F602282F207F09F05CC09D1116C05A
:101EF0009091F002C91212C0E1104EC08F70806143
:101F00008093F6020E94930E80EF92E00E948D0C67
:101F10008091F602F8018683F12C22C0E1103CC0CA
:101F20006D2D8C2D0E94FF0E6D2D8C2D0E94FF0EAD
:101F3000E82E8111F1CFCF86D88A8F8598890E94AB
:101F4000430E292F22952F70243078F49F70223071
:101F5000A8F09923B9F0F8019681907F99F4FE2CAE
:101F60008F2D6496ECE00C94052F2A5F2F702230A1
:101F700068F0C8010E948D0CEF2CF1CF992311F06D
:101F8000882369F3805E883050F3F3CF803F38F3C5
:101F9000815F833070F7E3CF8091F6028160809398
:101FA000F602BACF9D1113C09091F002C9120FC072
:101FB000E1100DC08683C8010E948D0C87E0F801F6
:101FC000A0EFB2E001900D928A95E1F767CFC801CA
:101FD0000E94E20C882309F464CFEE2009F461CF5B
:101FE0008091F602803288F02091F0023091F10267
:101FF000398728879B868A869091F4029C871D8664
:102000008E87CE0108960E948D0C87E0F801A0EF24
:10201000B2E001900D928A95E1F70E94A40E0E9411
:10202000930E42CF9091F602292F207FA1F4682DC4
:102030009A8A898AA6017A899E2D0E94EF0C80EFE8
:1020400092E00E948D0C87E0F50111928A95E9F7E4
:102050000E94930E61CF882309F482CF8091F10210
:102060008D1110C08091F002C8120CC0E1100AC09E
:102070009683C8010E948D0C87E0F50111928A9524
:10208000E9F76ECFC8010E94E20C882309F409CF5A
:10209000EE2009F406CF8091F602803208F4B5CF25
:1020A0002091F0023091F1023A8329839C828B8245
:1020B0009091F4029D831E828F83CE010196A3CF5F
:1020C000483C5105B8F5882309F4EECEFE2CEE20ED
:1020D00009F4E7CE8091F1028D111EC08091F002CB
:1020E000C8121AC08091F60280FD0DC0982F907F13
:1020F00051F08683903F09F45ECF982F907F905FD8
:102100008F70892B57CF87E0F801A0EFB2E00190E4
:102110000D928A95E1F724CFC8010E94E20C81114B
:1021200074CF8091F60281608093F602C8010E940C
:102130008D0C16CF682D9A8A898AA6017A899E2DE0
:102140000E94EF0C87E0F50111928A95E9F7A6CE7F
:10215000AEE0B0E0EEEAF0E10C94F22E2887398789
:102160004A875B876C877D878E87CE0108960E94A1
:102170001E0F8823B1F06C85662341F028853985D0
:102180004A855B857D858E850E94F90C17E08091DC
:10219000B6029091B70289133DC02E96E3E00C94ED
:1021A0000E2F87E0FE013896DE01119601900D9208
:1021B0008A95E1F78C85882349F32091B70230E0B6
:1021C000C9010196877099274091B60248171906F0
:1021D00099F097E0929FD001939FB00D1124A854DD
:1021E000BD4FFE01319601900D929A95E1F78093D3
:1021F000B7020E94710ECACF0E94C20C1092B702A1
:102200001092B60287E0E0EFF2E0DF011D928A95BE
:10221000E9F7BCCF819FC001112488549D4F0E94D3
:102220001E0F882309F4B9CFE091B6021E9FF0017A
:102230001124E854FD4F2081318142815381648112
:10224000758186810E94F90C8091B60290E001961A
:10225000877099278093B6029ACF8091FF02869566
:102260008695869508958091FF02877008959091D4
:10227000FF02977081E009F480E0089580910B03DC
:10228000089590910B03892B80930B0308958095FB
:1022900090910B03982390930B03089510920B03D6
:1022A000089590910A03892B80930A0308958095DD
:1022B00090910A03982390930A03089510920A03B9
:1022C000089508950E946111089590910003292FA7
:1022D000282331F080958923809300030E946211A6
:1022E000089508950E947111089590910103292F76
:1022F0002823281729F0982B909301030E9472112C
:10230000089590910103292F282331F08095892386
:10231000809301030E947211089580910103882324
:1023200029F01092010380E00E94721108950F932A
:102330001F93CF93DF930091040110910501C09189
:102340000B0380910A03C82B80910103882331F08D
:10235000C82B0E94902581110E948D11F801C08325
:10236000C0910401D091050148E050E067EF72E0B0
:10237000CE010E94B92F892B59F088E0FE01A7EF0A
:10238000B2E001900D928A95E1F7CE010E94FC2403
:10239000DF91CF911F910F9108950E949711089599
:1023A00008950E94D01108959091810392FF11C069
:1023B00098E0899F90011124622B6093FF020E9494
:1023C0004B0D8091FF028695869586950E94D111CE
:1023D00008950E944B0D08951092FF0280E00E9424
:1023E000D11108959091FF02809589238093FF0277
:1023F000282F277069F4891759F09091810392FF73
:1024000007C08695869586950E945B0D0E94EC110B
:102410000895CF93C82F8091810382FB992790F96B
:102420009C17E9F0C0FB82F98093810380918003BF
:10243000909181030E94641282E00E94F2118091C7
:102440001D0380FF0CC01F92CF9381E392E09F9306
:102450008F930E9497070F900F900F900F90CF913E
:1024600008958091810382FB882780F991E0892774
:102470000E940912089581E00E940912089580E0E7
:102480000E94091208956FEF7FEF90E080E00E94B4
:102490001130089590E080E00E94DD2F21E0863E1B
:1024A0009E4F09F020E0822F089582E090E00E9484
:1024B000CF2F089583E090E00E94CF2F089584E00D
:1024C00090E00E94DD2F0895BC0184E090E00E941E
:1024D00011300895AB01BC018FE090E00E940530FF
:1024E0000895AB01BC0183E190E00E94053008959E
:1024F00060E070E0CB010E947112089560E070E02E
:10250000CB010E946A120E9478120895A8E0B0E000
:10251000ECE8F2E10C94F32E66EE7EEF90E080E0C2
:102520000E94113060E082E090E00E94F32F81E091
:1025300090E09093B5028093B40261E083E090E074
:102540000E94F32F60E074E184E090E00E9411307B
:1025500060E086E090E00E94F32F6FEF87E090E06C
:102560000E94F32F40E050E0BA0188E090E00E9422
:10257000053060E084E290E00E94F32F60E087E1A4
:1025800090E00E94F32F60E08CE090E00E94F32F37
:1025900060E08DE090E00E94F32F19821A821B8286
:1025A0001C821D821E821F82188648E050E068E16E
:1025B00070E0CE0101960E94E32F40E050E0BA01A6
:1025C00080E290E00E9405300E947E122896E2E0B0
:1025D0000C940F2F0E9486120895682F8EE090E0D1
:1025E0000E94F32F0895A6E0B0E0E9EFF2E10C9429
:1025F000F12E0E94A0268C0180910C0390910D0376
:102600008017910781F019821A820E94A026682FF4
:1026100049815A81792F80E090E00E94400910930F
:102620000D0300930C032696E4E00C940D2F0E94FA
:10263000AC266093190370931A0380931B03909345
:102640001C036093150370931603809317039093F4
:1026500018030895089508950E942A13089508956F
:102660000E942F1308958CE998E20E9496170E9409
:102670002B130E942C13089581E008950E943C13AF
:1026800008950E943C130895089508950E944413EC
:102690000E94451308950E94E6150E94F2080895CD
:1026A0000E9497260E94F0160E944B130E94FF1E64
:1026B0000E9430130895A6E0B0E0E1E6F3E10C9447
:1026C000EA2E0E943E1381110AC00E94F3120E945A
:1026D000B2200E9405092696EBE00C94062F0E947A
:1026E00006178EE0A82E83E0B82E750110E0F701E2
:1026F00001917F01812F0E940C161F5F173009F492
:1027000041C00817A1F380911D0381FD0E9412169C
:102710000E944113C82E10E099249394812F0E94A7
:102720000C16082FF50181915F01081729F1F12C92
:10273000EE24E394D02ED8268D2D8E21A9F0CC2026
:1027400099F0F9821A830E94A0269C838B839D8234
:1027500091E0802F8E2109F490E049815A816B81AC
:102760007C818D810E944009F394EE0CF6E0FF120B
:10277000E3CFF501319700831F5F173079F60E9490
:102780001713A5CF0813BFCFA0CF1F93CF93DF930D
:102790000E94F414EC01C11580E5D807F0F5C115CD
:1027A00080E4D80708F09CC0C03ED10520F5CD3CA0
:1027B000D10508F082C0C83AD10578F4C53AD105F0
:1027C00008F073C0C130D10519F1209709F1C43068
:1027D000D105F0F4D0E0C0E01BC0C33CD105D0F778
:1027E000C85AD0E0CC0FDD1FC35ADE4F0990D88104
:1027F000C02DD4640DC0C11580E2D80708F0D1C047
:10280000C11581E0D80708F05AC0C83ED10510F7BD
:10281000CE01DF91CF911F910895C03682E5D80790
:1028200018F5C03482E5D80708F06BC0C03282E5E5
:10283000D80708F05FC0C11582E5D80708F497C033
:102840002C2F2695269580E2289F900111248C2F0D
:102850008370C1E0D0E002C0CC0FDD1F8A95E2F7A3
:10286000C22BD32BDD68D4CFC03A82E5D80760F401
:10287000C03882E5D80708F459C0CF71D0E0DC2F0A
:10288000CC27C46FD06AC4CFC03C82E5D80708F417
:1028900062C0C03E82E5D80708F09CCFDC2FCC2771
:1028A000CC27DF71C06FD06AB3CFC55AD0E0CD5608
:1028B000DE4FC881D0E0D064ABCFD065A9CF8D2FDB
:1028C0000E949615182FCE0199270E94F414C12F4B
:1028D000D0E0DC2FCC27CC27DF71C82BD92B98CFA9
:1028E000CE0199270E94F414CC27DF70C82BD92B76
:1028F000D06A8ECFCF71D0E0DC2FCC27C16FD06AE9
:1029000087CF2C2F26952695277080E2289F90014F
:1029100011248C2F8370C1E0D0E002C0CC0FDD1FEA
:102920008A95E2F7C22BD32BDC6872CF2C2F269529
:102930002695277080E2289F900111248C2F8370A8
:10294000C1E0D0E002C0CC0FDD1F8A95E2F7C22BB8
:10295000D32BDA685DCF8C2F8F710E949615C82F0C
:10296000D0E0DC2FCC27CC27DF71D06251CF8C2F69
:102970008F710E94961555E0D695C7955A95E1F747
:10298000CF70D0E0DC2FCC27282F30E084FF05C0AB
:1029900044E0220F331F4A95E1F7C22BD32BD069B5
:1029A00037CF8D2F8F710E949615182FCE01992742
:1029B0000E94F414C12FD0E0DC2FCC27CC27DF718C
:1029C000C82BD92BD2CF462F773030F4663020F485
:1029D000672F0E94BC07089590E080E008950E9450
:1029E000E3140E94C513089582389105B9F1B0F43B
:1029F0008133910509F47DC048F48932910509F4C9
:102A00006DC08A32910509F47BC008958533910524
:102A100009F45FC08933910509F10895833E91055A
:102A2000D9F138F4803E910529F1823E910579F182
:102A30000895863E9105D9F1873E910509F43EC07F
:102A4000843E910541F52091810321FF24C08091AE
:102A5000800384FD19C087EE90E0089520918003E3
:102A6000237009F05AC02091810323FF14C089E22A
:102A700090E008952091800320FD38C030918103BB
:102A800030FF09C024FF43C090E080E0089520910A
:102A9000800322FDF7CF08952091800322FD3AC0E4
:102AA0003091810330FD39C024FFF5CFEDCF209167
:102AB000800323FFF0CF24FDE7CFCDCF209180030B
:102AC00023FD2EC03091810331FFEECF84EE90E0E4
:102AD00008952091800325FFDECFC9CF2091800388
:102AE00025FD21C02091810323FFD5CF89E390E00C
:102AF000D2CF2091800326FFCECF8AE290E00895C6
:102B00002091800326FFC7CF81E390E0089583EEF4
:102B100090E0089582EE90E0089580EE90E00895B0
:102B200086EE90E0089585E390E00895909180030B
:102B300092FF10C041E0282F2471243009F040E0BA
:102B400031E0282F2871283009F030E0431711F0C8
:102B50002CE0822793FF10C041E0282F24712431FC
:102B600009F040E031E0282F2871283109F030E0E9
:102B7000431711F02CE082273091810330FF10C001
:102B800051E0282F2171213009F050E041E0282F39
:102B90002871283009F040E0541711F029E082270D
:102BA00031FF10C041E0282F2171213109F040E0B0
:102BB00031E0282F2871283109F030E0431711F057
:102BC00029E0822794FD877E089508950E944A1285
:102BD000811102C00E94EA120E94551280931D03C7
:102BE0000E945F1290938103809380030E94E515F9
:102BF0000E945A1290E00E940F0D8091B2029091B3
:102C0000B3020E94300D089508950E94041608959D
:102C100008950E9408160895E82FF0E0E757FC4F4A
:102C200080810895B0E0A0E0E8E1F6E10C94ED2E9B
:102C300085E592E00E94FE0689E8E82E83E0F82E02
:102C4000D0E0C0E090E5C92E92E0D92E08E412E071
:102C5000DF93CF93DF92CF920E9497078DE492E0AB
:102C60000E94FE06F70181917F010E94C7081F9212
:102C70008F931F930F930E94970786E492E00E9420
:102C8000FE0621968DB79EB708960FB6F8949EBFA4
:102C90000FBE8DBFC730D105D9F6CDB7DEB7E8E09E
:102CA0000C94092F80EA8A95F1F7089500C00895E1
:102CB0000E9452160895F894E82FE295EF70F0E024
:102CC00031A1282F2F7081E090E001C0880F2A9554
:102CD000EAF7982F9095932391A392A1892B82A331
:102CE000789408950F931F93CF93DF93CCE9D1E0AD
:102CF00089918F3F11F00E945B1681E0C33AD8079B
:102D0000B9F7C6E9D1E00CE911E089918F3F11F0E4
:102D10000E945B160C171D07C1F7DF91CF911F9121
:102D20000F910895B0E0A0E0E8E9F6E10C94ED2EF3
:102D3000EC01D62E062F10E0C80184569E4F7C0170
:102D4000FC0180818F3F09F444C0F894E82FE2959C
:102D5000EF70F0E091A18F7021E030E001C0220F10
:102D60008A95EAF7892F822B81A382A120952823B7
:102D700022A378940E945616E6E9F1E031E0C12CD6
:102D800021912F3F59F1A22FA295AF70B0E09096FC
:102D90008C9190E02F7002C0959587952A95E2F767
:102DA00080FD1CC0832FC82A330F81E0EC39F8075F
:102DB00039F7F70180818F3F11F00E945B1661E0C7
:102DC000C11001C060E08D2D0E945816C00FD11FA8
:102DD000C882CDB7DEB7E8E00C94092F80E0E3CFDE
:102DE0000E94721687E0E9E8F3E0DF01982F1D9258
:102DF0009A95E9F7E2E8F3E0DF011D928A95E9F799
:102E000087E00E9441170E9405160895A7E0B0E0F0
:102E1000ECE0F7E10C94F02E8E010F5F1F4F87E07E
:102E2000F80111928A95E9F7F12C6F2DC8010E94E3
:102E30009216F394F7E0FF12F8CF47E050E0B801A4
:102E400082E893E00E94B92F21E0009709F420E086
:102E5000892B41F087E0F801A2E8B3E001900D92E0
:102E60008A95E1F747E069E873E082E893E00E9421
:102E70004217182F0E940916812F2796E5E00C941F
:102E80000C2F0895B0E0A0E0E8E4F7E10C94ED2EFB
:102E90006C017B01042FC22F222379F081E0809303
:102EA00020030E94A02690931F0380931E0380E0BE
:102EB000CDB7DEB7E8E00C94092FD0912003DD23D5
:102EC000B1F380911E0390911F030E94B8260597CD
:102ED00070F310E0A801B601C7010E94B92F892B39
:102EE00031F0A801B601C7010E94C62FCD2F109264
:102EF00020038C2FDDCF0E9418290E9450130E94BE
:102F0000252908950E942A290E945B130E944C29BA
:102F100008950E9439260E94FE280E9433130E94C1
:102F20007B170E9482170E944613FBCF9093930257
:102F3000809392020895EF92FF920F931F93CF9385
:102F4000DF93EB01E82FD1110EC0442321F0F0E014
:102F5000E151F94FE4916E2F7E2F8E2FCDB7DEB762
:102F6000E6E00C940B2F0D2F10E0282F30E04423C7
:102F700029F02151394FF901249130E0F6E0CF9F3B
:102F8000C0011124EFEFF0E0BF010E94622EAB01FF
:102F90008C2F90E0880F991FA5E5A49FB001A59FF5
:102FA000700D1124861B970B982F990F980FBF0156
:102FB000601B710B629FD001639FB00D729FB00DBB
:102FC00011248B2F9D9FB0011124672F7727EF01CC
:102FD000C61BD70BBE01629FE001639FD00D729F9D
:102FE000D00D11247F01E91AF108E09EB001E19EA5
:102FF000700DF09E700D1124672F7727E61BF70BDD
:10300000E29F8001E39F100DF29F100D1124E12F2C
:10301000722F4230510599F048F44115510569F07D
:103020004130510581F0EB2F8D2F07C04430510501
:1030300069F080F046305105B1F76E2F8FCFE22F47
:103040007B2F812FFACFE22F7D2FF7CFEB2F822F0F
:10305000712FF3CF7B2F822FED2FEFCF41E00E9416
:103060009B17089508950E942E180895CF93DF931B
:10307000762FE901682F842F0E94331879836883A3
:103080008A83DF91CF91089580919003982F9C7F40
:1030900029F4837084608093900308958C3AE8F358
:1030A0008370886AF8CFB0E0A0E0E9E5F8E10C941D
:1030B000ED2E88E090E00E94D72F6B017C0184E226
:1030C00090E00E94CF2F282F30E040E050E060E0F9
:1030D00070E080E090E000E20E941A2FB22FA32F50
:1030E000F42FE52FD62FC72F97018601BC29A12BDE
:1030F000FE295E2F532B2B2F3A2F4F2F6D2F7C2F16
:10310000CDB7DEB7E8E00C94092FB0E0A0E0EBE823
:10311000F8E10C94E92E49015A016B017C010E94EF
:1031200044188401A4016A2D7B2D88E090E00E9460
:10313000053094014A2D5B2DB601C70100E20E94C3
:10314000352F622F84E290E00E94F32FCDB7DEB7D7
:10315000ECE00C94052FE0E9F3E085E08083118238
:103160008FEF828383831482758125E030E04FEFF7
:103170005FEF60E0868197810E94851808958091B5
:103180001D0380FF8BC08CEB95E09F938F930E9473
:10319000970780911D030F900F9080FF7FC0809153
:1031A000900381701F928F938FE995E09F938F9387
:1031B0000E94970780911D030F900F900F900F9022
:1031C00080FF6CC080919003869581701F928F93D1
:1031D0008FE795E09F938F930E94970780911D033F
:1031E0000F900F900F900F9080FF58C08091900328
:1031F000869586951F928F9384E695E09F938F9393
:103200000E94970780911D030F900F900F900F90D1
:1032100080FF44C0809191031F928F938AE495E0D0
:103220009F938F930E94970780911D030F900F909B
:103230000F900F9080FF32C0809192031F928F9366
:1032400080E395E09F938F930E94970780911D03E1
:103250000F900F900F900F9080FF20C080919303EC
:103260001F928F9386E195E09F938F930E9497071B
:1032700080911D030F900F900F900F9080FF0EC054
:10328000809194031F928F938AEF94E09F938F9382
:103290000E9497070F900F900F900F9008958091C4
:1032A000900380FF03C086958695089580E0089579
:1032B00090919403933018F49F5F90939403882324
:1032C00091F020919003309191034091920350919D
:1032D000930360919403709195038091960390916C
:1032E00097030E948518089581E00E945819089557
:1032F00090919403992319F091509093940388230B
:1033000091F020919003309191034091920350915C
:10331000930360919403709195038091960390912B
:1033200097030E948518089581E00E9478190895F6
:1033300070E00E944221089560910A0180919003FB
:1033400080FF0BC08091090123E0829FC0011124FE
:1033500088569C4F0E949819089580910B01909176
:103360000C0123E0829FF0011124E856FC4F8917DD
:1033700048F71182108212828F5F3396F8CF9091B6
:10338000900390FF0EC090910B0120910C0133E04F
:10339000939FF0011124E856FC4F921718F00E94F9
:1033A0009C1908958183608342839F5F3396F5CF94
:1033B000A3E0B0E0EEEDF9E10C94F32E90919003D0
:1033C00090FF0AC09E012F5F3F4F0E9436184B812D
:1033D00069818A810E94BF192396E2E00C940F2F25
:1033E000CF93DF93EC01EC81F0E0E651FA4F44918A
:1033F000E0E9F3E0628181810E94D8198C818F5FBE
:103400008C83DF91CF910895CF93DF93EC01E0E9B6
:10341000F3E0438162818C810E94D8198C818F5F97
:103420008C83DF91CF910895A3E0B0E0EAE1FAE167
:103430000C94F12E8C018091210381110AC09E0110
:103440002F5F3F4F4FEF6FEF0E9436188A818093B6
:103450002103F8016481613069F08091210340E02B
:10346000662361F040E0623011F44091210380E076
:1034700060E004C06091210340E080E00E94BF1939
:10348000F801848190E0019663E070E00E94762E5E
:1034900084832396E4E00C940D2FA3E0B0E0E3E5F1
:1034A000FAE10C94E62E082FE62EF42EC22E90910F
:1034B000900390FF4BC0E92FE695E695AE2FB0E064
:1034C000AD55BE4F8C91809364039C7F943009F07E
:1034D00041C09E012F5F3F4F802F0E9436184B81C5
:1034E00069818A810E94BF1900939103E09292033F
:1034F000F0929303CC2009F48AC02091900360914C
:10350000940370919503302FA701809196039091B9
:1035100097030E94851880911D0380FF17C080913A
:1035200093031F928F93809192031F928F938091A8
:1035300091031F928F938DEB92E09F938F930E9444
:1035400097070FB6F894DEBF0FBECDBF2396EFE00E
:103550000C94022F823019F4F0909303C5CF86307B
:1035600019F400919103C0CF8930D9F3893109F062
:10357000BBCFE9518E2F8170782E8E2F8095817070
:10358000D82EE695F0E0E651F94F1491612C92EEB9
:10359000A92E92E0B92E60910D01661618F00E94D6
:1035A0009C19A2CF619EC001112470E00E94622E7E
:1035B000502E71102AC0560E862C912C80911D031E
:1035C00080FF11C01F921F931F92DF921F925F9284
:1035D0001F926F92BF92AF920E9497070FB6F89416
:1035E000DEBF0FBECDBF20910B01820E911C940156
:1035F000220F331F280D391D28563C4F4F2D6E2D9D
:10360000852D0E9436186394C6CF561AD5CF809167
:103610001D0380FF9BCF1F92FF921F92EF921F927C
:103620000F9386E992E089CFE0E9F3E09181282FBA
:103630004381628180E1890F0E944D1A089581E0E3
:103640000E94141B0895E0E9F3E09181282F438143
:10365000628180EF890F0E944D1A089581E00E94D7
:10366000231B0895E0E9F3E0628120E1620F08F492
:103670006FEF282F438181810E944D1A089581E0C8
:103680000E94321B0895E0E9F3E0628120E1621BB1
:1036900008F460E0282F438181810E944D1A08952B
:1036A00081E00E94431B0895E0E9F3E0438120E1BB
:1036B000420F08F44FEF282F628181810E944D1A3A
:1036C000089581E00E94541B0895E0E9F3E04381EE
:1036D00020E1421B08F440E0282F628181810E9492
:1036E0004D1A089581E00E94651B089520E00E9414
:1036F0004D1A0895EF92FF921F93CF93DF93EC0141
:1037000010E0EE24EA94F12C60910D01161770F090
:103710000E949C199A818C8190FF27C08F5F8C83B7
:10372000DF91CF911F91FF90EF90089520910B01B1
:10373000422F410F5527551FCA019A01220F331FEF
:10374000280F391F28563C4F70E0C7010E94762E83
:10375000962F8C814091930360919203199F800D65
:1037600011240E9436181F5FCFCF8150D8CFB0E010
:10377000A0E0EDEBFBE10C94EB2EFC0182810FEF5E
:1037800080FF01E010E04BE0A42E80910D0118179E
:1037900098F00E949C1980912303013009F04FC0DA
:1037A000811102C080910D01815080932303CDB718
:1037B000DEB7EAE00C94072FC0910B01C12ED12C8B
:1037C000CC0DDD2DD11DCE01880F991FC80FD91F3B
:1037D000C856DC4F198218821A8234E0E32EF12C8D
:1037E000B12C809123038B0D8C301CF16A2D0E942B
:1037F000542E892F082E000C990BC816D90691F467
:10380000809193038E9DA0018F9D500D112455959D
:103810004795559547959E0160919203809191033C
:103820000E943618B00EF1E0EF1AF108D1F61F5FD2
:10383000ACCF87FFDFCF90910D01890FDBCF90E0F8
:10384000019660910D0170E00E94762EAECF0F932D
:103850001F93CF93DF9380910B0190910C0123E094
:10386000829FF0011124E856FC4F891740F1C0E017
:10387000D3E060910D01C61740F10E949C19209180
:10388000070180912203820F809322039091080107
:10389000920F90930801191654F4082E000C990BFE
:1038A00040910D014150550B841795071CF021954F
:1038B00020930701DF91CF911F910F9108951182FD
:1038C000108212828F5F3396D0CF0C2F10E070E001
:1038D000C8010E94762E20910B01820F482F50E0E4
:1038E00020912203022E000C330B02171307BCF0A9
:1038F00020910801022E000C330B201731077CF0B9
:103900008D9F9001112428563C4F40919303609164
:103910009203809191030E943618CF5FAACFFA01DB
:10392000EE0FFF1FE40FF51FE856FC4F11821082C7
:103930001282F3CFB0E0A0E0E0EAFCE10C94E92EC3
:10394000EC014C81042F10E09801D8010E94BA2E9E
:103950009B01AC010E94D02E4B015C01E0E2F0E043
:10396000E01BF10BA5E5B0E0AC019B010E94D02E5D
:103970006B017C019F01DF010E94B22E9B01AC0113
:103980000E94DB2E9B01AC01280D391D4A1D5B1DD9
:10399000C701B6010E948A2EF22E822F90E039E2F2
:1039A0003F1520F143E0249F900111243595279580
:1039B000122F109500E085E5E82EEF1880910D019B
:1039C000081718F10E949C199C8181E0992319F035
:1039D000903219F48FEF8093060180910601890FD0
:1039E0008C83CDB7DEB7ECE00C94052F25E530E0F5
:1039F000B901681B790B9B01220F331F260F371F5C
:103A000037FFD4CF2F5F3F4FD1CF8E2D01FD8F2DAC
:103A100020910B01622F600F7727771F9B01220FE8
:103A2000331F260F371F28563C4F412F60919203BA
:103A30000E9436180F5FC2CF0F931F93CF93DF936F
:103A4000EC0110E000E090910D019017110609F0D3
:103A50006CF40E949C198C8190E0019681709927EA
:103A60008C83DF91CF911F910F91089520910B01CD
:103A7000A801420F511D9A01220F331F240F351F39
:103A800028563C4F4C81609192038091910396950A
:103A90009017110651F04CF0442349F040919303E4
:103AA0000E9436180F5F1F4FCECF4423B9F340E07A
:103AB000F7CFB0E0A0E0EFE5FDE10C94E52EFC01CE
:103AC0006280448081E08483EAEEF5E07490E9E668
:103AD000F6E0E491C0919303C695C158D0E0CC0FB5
:103AE000DD1FCD2FDD27812C75E0972EAA24AA9407
:103AF000B12C55245A94E719EE2EF12C80910D012A
:103B0000881638F00E949C19CDB7DEB7E0E10C941E
:103B1000012FC82CD12C82E0861568F09C9CF00106
:103B20009D9CF00D1124EC5DFC4F809191038083EE
:103B3000809192038183411023C09C9CF0019D9C45
:103B4000F00D1124EC5DFC4F1382128220910B01C9
:103B5000C601820F911D9C01220F331F280F391FB0
:103B600028563C4F9C9CF0019D9CF00D1124EC5D6F
:103B7000FC4F4281618180810E9436188394BECFC0
:103B80009C9C80019D9C100D11240C5D1C4FF80124
:103B900083818823F1F081508383859DC0011124A6
:103BA000648170E00E94622EFB01FF27E651FA4F0C
:103BB0008491E82FE719E59DC0011124B7010E9407
:103BC000622E80919303689FB0011124F8017283E3
:103BD000BDCF0E949C2FB5010E94762E8C179D07A9
:103BE0000CF0B4CFF2E0F61598F40E949C2FB501CA
:103BF0000E94762EF80180830E949C2F20919203D0
:103C00002695622F70E00E94762E280FF8012183FE
:103C10009C9CF0019D9CF00D1124EC5DFC4F1282E8
:103C200080919303893C58F088EC9C9CF0019D9C0A
:103C3000F00D1124EC5DFC4F8483838387CF8431A6
:103C4000A0F784E1F2CF609190036695669570E0ED
:103C50004BE050E08EE091E00E94AC2F892B19F4EC
:103C600081E0809365030E94A02690935C0380937B
:103C70005B0380911D0380FF08C08DE792E09F9356
:103C80008F930E9497070F900F90089510926503ED
:103C900080911D0380FF08C084E692E09F938F937C
:103CA0000E9497070F900F9008959091900390FFB6
:103CB00049C09370811147C0946090939003209104
:103CC0009003662309F447C0309191034091920319
:103CD00050919303609194037091950380919603A2
:103CE000909197030E94851880911D0380FF10C05A
:103CF00080919003869586951F928F9380E494E03F
:103D00009F938F930E9497070F900F900F900F90A3
:103D1000609190036695669570E04BE050E08EE010
:103D200091E00E94AC2F892B09F10E94461E81E090
:103D300080935E034091930360919203809191037D
:103D40000E94761B08958B3210F0986AB6CF880FC8
:103D5000880F982BB2CF80911D0380FFD9CF269575
:103D600026951F922F9382E294E0CACF0E94231ED1
:103D7000DECF682F909190039695969581E0890FFC
:103D80008B3208F081E00E94551E089581E00E9468
:103D9000B91E0895682F90919003969596958FEF90
:103DA000890F09F48AE20E94551E089581E00E945D
:103DB000CA1E089561E00E94551E089580919003E7
:103DC00081608093900380911D0380FF0DC01F923E
:103DD00081E08F9384EB93E09F938F930E949707EA
:103DE0000F900F900F900F9080919003869586957D
:103DF0000E94DA1E089560E00E94551E0895809189
:103E00006303811171C080911D0380FF14C083EE94
:103E100094E09F938F930E94970780911D030F90CA
:103E20000F9080FF08C08DEC94E09F938F930E94C9
:103E300097070F900F900E944A12811110C0809135
:103E40001D0380FF08C085EA94E09F938F930E9432
:103E500097070F900F900E94EA120E94AB180E94E1
:103E600053182093900330939103409392035093FF
:103E700093036093940370939503809396039093B8
:103E800097032C7F01F580911D0380FF08C08CE50E
:103E900094E09F938F930E9497070F900F900E943A
:103EA000AB180E94531820939003309391034093D2
:103EB00092035093930360939403709395038093BC
:103EC0009603909397030E9444180E94BF18109283
:103ED00065038091900380FF04C0869586950E94BB
:103EE000FB1E81E0809363030895809190038160BD
:103EF0008093900380911D0380FF0DC01F9281E08D
:103F00008F938BE793E09F938F930E9497070F9077
:103F10000F900F900F9080919003869586950E9448
:103F2000FB1E0895109262038091610381110E942B
:103F3000751F0E94231E0895209190032E7F2093C9
:103F400090033091910340919203509193036091BB
:103F500094037091950380919603909197030E942A
:103F6000851880911D0380FF0FC0809190038170A0
:103F70001F928F9383E493E09F938F930E94970700
:103F80000F900F900F900F900E94461E0E949C1958
:103F9000089580911D0380FF10C08091900380954B
:103FA00081701F928F938BEE93E09F938F930E946B
:103FB00097070F900F900F900F908091900380FFC4
:103FC00003C00E949C1F08950E94DE1E08958091E8
:103FD00090038E7F8093900380911D0380FF0CC01F
:103FE0001F921F9289E093E09F938F930E949707FF
:103FF0000F900F900F900F900E94461E0E949C19E8
:1040000008950E94461E8091620381110AC081E0DA
:1040100080936203809190038170809361030E947A
:10402000E71F08950F931F93CF93DF93809165034C
:104030008823C1F180916403E0919003E695E695B1
:10404000E81BE0935D03823091F5F0E0EA51FA4F0E
:10405000E491CE2FD0E000EF19E180915E03882338
:1040600061F010925E030E94A02690935C038093FF
:104070005B031092600310925F030E94A026E09100
:104080005B03F0915C038E1B9F0B8F3F9F4750F4A7
:10409000EC0FFD1FF0935C03E0935B038BE593E073
:1040A000F8010995DF91CF911F910F910895863006
:1040B00049F4F0E0ED51FA4FE491CE2FD0E004E066
:1040C0001AE1CBCF893051F4E695F0E0E052FA4F97
:1040D000E491CE2FD0E00AE71BE1BFCF8F3051F43F
:1040E000E695F0E0E352FA4FE491CE2FD0E007EBF3
:1040F0001BE1B3CF853149F4F0E0E652FA4FE49189
:10410000CE2FD0E007E21CE1A8CFC8E2D0E00AE958
:104110001CE1883109F4A1CF833239F4E8EDF5E0F0
:10412000C591D49104E11AE198CFC4EFD1E00CE13C
:104130001DE1843209F491CFC0EDD7E002E318E12C
:10414000853209F08ACF8E2F63E00E94482EE92F36
:10415000F0E0EB52FA4FE491CE2FD0E009E51DE1FB
:104160007CCF08950E9412200895FA01811101C0A8
:10417000FB0109950895CF93DF93C82FD62F0E9496
:104180004F198C1748F00E944F198D1728F40E9480
:10419000C61EDF91CF9108958C2F0E94DA1EF9CFB1
:1041A0001F93CF93DF93EC01FB011581111110C018
:1041B0000E943E118272FE01E052F847E531F1059E
:1041C00008F05EC0EC5AFF4C0C94AC2E0E94C91F44
:1041D000812FDF91CF911F91089546ED5EE166EC4E
:1041E0007EE10E94B520F4CF46EC5EE166ED7EE113
:1041F000F8CF4EE25BE16FE17BE1F3CF4FE15BE1B2
:104200006EE27BE1EECF40E55BE16FE37BE1E9CF7E
:104210004FE35BE160E57BE1E4CF42E75BE161E630
:104220007BE1DFCF41E65BE162E77BE1DACF44E9A6
:1042300059E164E779E1D5CF44E759E164E979E1EF
:10424000D0CF81E00E94DA1EC3CF65E082E00E94F9
:10425000BB20BECF68E086E0FACF6EE089E0F7CF02
:1042600064E18FE0F4CF67E185E1F1CF88E1EACF47
:1042700062E289E1ECCF83E2E5CF6AE285E2E7CF53
:1042800011E0A6CF539A4BB1477F5BB15860EFB7AF
:10429000F8949B01220F331F260F371F280F391F59
:1042A0002817390741F4EFBF8FE594E00197F1F744
:1042B00000C000000895DC016D91CD0178E05BB98C
:1042C000000000C067FF4BB9660F000000C000C0CF
:1042D00000C04BB900C07A9591F7E2CFCF93C82FB9
:1042E0001F928F9385EF97E09F938F930E9497077C
:1042F00081E090E002C0880F991FCA95E2F70E9402
:104300000F0D0E94C20C0F900F900F900F90CF9145
:104310000895EF92FF920F931F93CF93DF938B310A
:1043200009F410C108F0B0C08B3009F4CCC008F01B
:1043300082C0863009F4DAC048F4853009F4B2C08E
:104340008EE89BE00E94FE0680E0E0C0873009F422
:10435000E2C08830A9F70E945A121F928F9381E71A
:104360009BE09F938F930E9497070E94551283FBB7
:10437000992790F91F929F9382FB992790F91F929A
:104380009F9381FB992790F91F929F93982F91708B
:104390001F929F931F928F9388E29BE09F938F932E
:1043A0000E9497070E945F1293FB222720F91F9219
:1043B0002F9387FB222720F91F922F9386FB22271A
:1043C00020F91F922F9385FB222720F91F922F930C
:1043D00084FB222720F91F922F9383FB222720F9A9
:1043E0001F922F9382FB222720F91F922F9391FB7C
:1043F000222720F91F922F93292F21701F922F938C
:1044000081FB222720F91F922F93282F21701F92C2
:104410002F939F938F9389E29AE09F938F930E94AB
:1044200097078DB79EB78A960FB6F8949EBF0FBEBA
:104430008DBF81E06BC0803109F49CC080F48E3068
:1044400009F07ECF90911D03892F8B7F92FF8460AE
:1044500080931D0382FF8BC089EB9BE07FC0863178
:1044600009F498C0893109F06BCF8EEC91E09F93ED
:104470008F9385E698E09F938F930E9497070F9004
:104480000F900F900F90D5CF8A3249F190F4873278
:1044900011F128F48E3108F453CF8D511DC08932AB
:1044A00009F04ECF8CEF9BE00E94FE060E94380878
:1044B000C0CF833468F48A3308F091C0853359F053
:1044C000883309F03DCF83E898E00E94FE06B1CF23
:1044D000833409F035CF80E00E946E21AACF8CE1B1
:1044E0009CE00E94FE060E94EA12A3CF80911D0369
:1044F000807F80931D0388E698E00E94FE0688E195
:104500009CE00E94FE0681E080936603CDB7DEB793
:10451000E6E00C940B2F90911D03892F8E7F90FF66
:10452000816080931D0380FF03C080EF9BE0CDCFAF
:1045300083EE9BE00E94FE0680911D03817F8093A5
:104540001D0377CF90911D03892F8D7F91FF82608E
:1045500080931D0381FF08C086ED9BE00E94FE064C
:1045600080911D038160EBCF88EC9BE0AECF89EAA0
:104570009BE0ABCF90911D03892F877F93FF8860CD
:1045800080931D0383FF03C08DE99BE0E7CF80E9A3
:104590009BE09BCF0E94AC26162F072FF82EE92E0A
:1045A000D0917F03C09123010E94EC24EF92FF92EF
:1045B0000F931F931F92DF931F92CF931F928F939E
:1045C0008AEF97E09F938F930E9497078DB79EB7CE
:1045D0000C960FB6F8949EBF0FBE8DBF2ACF89539D
:1045E0007BCF80E008950E94F1220895CF93C82FD9
:1045F00080916603882331F0813099F01092660330
:1046000080E00DC00E943E118232D1F78C2F0E94B3
:10461000F122811119C08C2F0E9489218170CF91C4
:1046200008950E943E11823289F38C2F0E94F3225A
:10463000811119C0C431C9F050F4CB3061F08FEE54
:1046400097E00E94FE0613C081E090E0E7CFC932F8
:1046500061F0C833A1F788E698E00E94FE0681EF7A
:1046600097E00E94FE0681E0D9CF1092660380E0B9
:10467000D5CFCF93DF93EB0186319C4711F50E9494
:104680003E119D81992399F08A7A91E009F490E096
:1046900090936703811109C089E20E94E0250E947E
:1046A000CD1180E0DF91CF91089585E3F6CF809121
:1046B0006703811104C089E20E94E825F0CF85E3F9
:1046C000FBCF81E0EFCFCF93DF93EC01FB0185813E
:1046D000882309F4D2C09E0130572332310508F0F7
:1046E000B2C00E945F129093810380938003FE0109
:1046F000E150F047E232F10520F4E759FF4C0C9409
:10470000AC2E8091800381608093800393C0809160
:1047100081038860809381038DC0809180038260D3
:10472000F3CF809180038460EFCF80918003886015
:10473000EBCF809181038160EDCF80918103826016
:10474000E9CF809180038061DFCF80918003806218
:10475000DBCF809180038064D7CF0E94C20C809110
:1047600080038068D1CF809180038C60CDCF809111
:1047700081038360CFCF809180038E7FC5CF8091EE
:104780008103877FC7CF809180038D7FBDCF8091CC
:1047900080038B7FB9CF80918003877FB5CF8091D5
:1047A00081038E7FB7CF809181038D7FB3CF8091BE
:1047B00080038F7EA9CF809180038F7DA5CF8091CC
:1047C00080038F7BA1CF0E94C20C809180038F77E2
:1047D0009BCF80918003837F97CF809181038C7FD3
:1047E00099CF8091800382FB992790F921E092274D
:1047F00090FB82F990FB83F987CF80918103982FFA
:10480000909591708E7F892B90FB81F983CF909149
:104810008003892F8F7B96FF806476CF0E94C20C25
:1048200090918003892F97FB87F980586DCF81E0A5
:104830000E94ED1280918003909181030E94641286
:104840000E94C20C80E0DF91CF91089580E0F0CF0C
:1048500090918003892F8F7E94FF806155CF909136
:104860008003892F8E7F90FF81604ECF90918103CE
:10487000892F877F93FF88604DCF81E0E4CF0F932E
:104880001F93CF93DF93C42FD22FFC018581882300
:10489000C9F040936A030E94A02690936903809315
:1048A000680380E28C0F883040F4C77081E001C05B
:1048B000880FCA95EAF70E94750ADF91CF911F9180
:1048C0000F91089510916A03141332C08091680308
:1048D000909169030E94B826883C910548F5C0E292
:1048E000CD0F1D17B9F080E2810F883040F41770AA
:1048F00081E001C0880F1A95EAF70E947C0AC8304F
:1049000048F481E09D2F977001C0880F9A95EAF7CF
:104910000E94750A802F0E946C0AC83070F6D7700A
:1049200081E001C0880FDA95EAF70E947C0AC5CFC2
:1049300080E28C0F883008F6C77081E001C0880FD4
:10494000CA95EAF7F2CF0F93DB0188519C47873075
:104950009105A0F5FC01E557FF4C0C94AC2E06E246
:1049600021EE41EE6AE17CE7CD010E943F2480E028
:104970000F91089507E225EE45EE6BE17CE7F4CF59
:1049800006E221EE40EE68E17CE7EECF07E225EE9D
:1049900044EE69E17CE7E8CF06E221EE42EE6CE10D
:1049A0007CE7E2CF07E225EE46EE6DE17CE7DCCF67
:1049B00008E221E045EE6EE17CE7D6CF15968C91BA
:1049C000882319F010926A03D3CF81E0D1CF90935E
:1049D000700380936F030895E0916F03F09170036B
:1049E000309729F00190F081E02D0995089580E03D
:1049F00008950E94EC240895EF92FF920F931F9365
:104A0000CF93DF93EC01E0916F03F0917003309747
:104A1000C1F10280F381E02D099580911D0382FF91
:104A200030C080FF0DC088811F928F9385E39CE08A
:104A30009F938F930E9497070F900F900F900F9066
:104A40007E0186E0E80EF11C0FE21CE080911D0360
:104A500080FF0BC08A811F928F931F930F930E9438
:104A600097070F900F900F900F902196CE15DF05AE
:104A700069F780911D0380FF04C08DE29CE00E94D5
:104A8000FE06CDB7DEB7E6E00C940B2FA3E0B0E056
:104A9000ECE4F5E20C94F32E20916D0330916E035B
:104AA00028173907A1F090936E0380936D03E0916E
:104AB0006F03F0917003309751F023E029839B83BB
:104AC0008A830084F185E02DCE0101960995239615
:104AD000E2E00C940F2FA3E0B0E0E1E7F5E20C94E4
:104AE000F32E20916B0330916C0328173907A1F046
:104AF00090936C0380936B03E0916F03F0917003CC
:104B0000309751F024E029839B838A830084F185C8
:104B1000E02DCE01019609952396E2E00C940F2F2B
:104B200040910401509105019A012E5F3F4F485F6B
:104B30005F4F80E02417350709F40895F90191913A
:104B40009F019923B9F38F5FF5CF882371F02091EE
:104B5000040130910501F9013296285F3F4F919190
:104B6000981729F0E217F307D1F780E0089581E064
:104B700008959C01FC0132969FEF80E04191461719
:104B800051F09F3F19F4411101C0982F8F5F86307B
:104B9000A9F79F3F09F40895290F311D97FD3A9514
:104BA000F90162830895FC0132960896219126133B
:104BB00003C0DF0111971C92E817F907B9F70895B0
:104BC000682F80910401909105010E94B9250895F4
:104BD000682F80910401909105010E94D3250895CA
:104BE000E0910401F0910501329686E0DF011D920B
:104BF0008A95E9F7089508950E94FB25089581118B
:104C000006C081E0809371030E94FC25089582E034
:104C1000F9CF83E0809371030E94FC2508950E94E0
:104C2000FF25089581E0809371030E94FC2508957B
:104C30000E9412260895089508950E941C26089542
:104C4000089508950E941B260895CF930E94202660
:104C50000E9406170E942126C0E08C2F0E940C168D
:104C6000811105C0CF5FC730C1F7CF91089581E0B2
:104C7000FCCF85B7806885BF85B7806885BF0895FC
:104C80001F921FB61F9211248F939F93AF93BF93D0
:104C900080917203811113C08091B9039091BA037E
:104CA000A091BB03B091BC034196A11DB11D80939F
:104CB000B9039093BA03A093BB03B093BC03BF9115
:104CC000AF919F918F911F901FBE1F90189580915B
:104CD000C103843031F10E94B9081092720388E157
:104CE00090E020E40FB6F894A895809360000FBE82
:104CF0002093600083B7817F846083BF83B7816026
:104D000083BF7894889583B78E7F83BF0FB6F8945E
:104D1000A895809160008861809360001092600087
:104D20000FBE08950E94C20C0E94C008089582E040
:104D300084BD93E095BD9AEF97BD80936E00089572
:104D40002FB7F8948091B9039091BA03A091BB0357
:104D5000B091BC032FBF08952FB7F8946091B903A9
:104D60007091BA038091BB039091BC032FBF08954B
:104D70009C014FB7F8948091B9039091BA03A09128
:104D8000BB03B091BC034FBF821B930B0895789473
:104D90001F921FB61F9211248F939F93AF93BF93BF
:104DA0008091B9039091BA03A091BB03B091BC0369
:104DB0000196A11DB11D8093B9039093BA03A093EE
:104DC000BB03B093BC03BF91AF919F918F911F9094
:104DD0001FBE1F90189587E797E79093010880936F
:104DE000000888E19AE00FB6F894A89580936000D7
:104DF0000FBE90936000FFCF88E19AE00FB6F89461
:104E0000A895809360000FBE90936000FFCF8091C3
:104E10007E030895089508959B01BA019091C103FE
:104E20009430E9F48F708093E9009FEF8091E8005F
:104E3000915085FD06C085ED8A95F1F7000091112E
:104E4000F5CF8091E80085FF0AC050E040E0C9013D
:104E50000E94C2298091E8008E778093E80008952F
:104E600043E050E0BC0182E00E940C270895CF93FC
:104E7000DF93EC0148E050E0BC0181E00E940C2788
:104E800088E0FE01A6E7B3E001900D928A95E1F774
:104E9000DF91CF91089584E79CE00E94FE06809107
:104EA000C003811109C00E94522B0E94AF2B809138
:104EB000E20084608093E200089580E79CE00E9415
:104EC000FE061092C00308958CE69CE00E94FE0648
:104ED0000E941226089588E69CE00E94FE066091DA
:104EE000BD0381E0611101C080E00E9409260895A0
:104EF00084E69CE00E94FE069091C10381E094301C
:104F000009F080E06091BD030E940F260895209172
:104F100074032F5F822F62E30E94482E992319F0B9
:104F2000209374030895109274038091750388236D
:104F3000F1F08091C1038430C1F49091E9009F7039
:104F40002091EC00822F817020FD80E8892B93E076
:104F50009093E9009091EB0090FF04C09091EE00D7
:104F600097FD08C08F708093E90010927503089533
:104F70001092F1009091E80095FDFACF9091E80031
:104F800090FFF0CF9091E8009E779093E800EACFF1
:104F900042E061EC81E00E94CE2A42E261EC82E0D4
:104FA0000E94CE2A42E261EC83E00E94CE2A9091D8
:104FB000C10381E0943009F080E06091BD030E945C
:104FC000FF2508958091C303833009F461C030F454
:104FD0008130D1F1823009F49EC008958A3009F4FD
:104FE0008AC08B3009F46FC0893009F050C08091BD
:104FF000C203813209F04BC08091C6039091C70370
:10500000029708F044C08091E800877F8093E80011
:105010008091E80082FF37C09091F3008091F20008
:10502000029731F48091F100813011F0863021F443
:105030008091F10080937E038091E8008B778093CC
:10504000E8000E94022B23C08091C203813AF9F448
:105050008091E800877F8093E8008091C60390915B
:10506000C703892B61F468E086E793E070E00E9453
:10507000112A8091E8008B778093E800089560E022
:1050800090E080E0F3CF8091C1038111C1CF0895FA
:105090008091C203813AD9F78091C6039091C703EA
:1050A000892BA9F78091E800877F8093E8008091A1
:1050B000E80080FFFCCF809123018093F100809174
:1050C000E8008E77BCCF8091C203813201F78091D6
:1050D000C6039091C703892BD1F68091E800877FA2
:1050E0008093E8000E94022B8091C40380932301E7
:1050F0000E94C20C08958091C203813241F68091D2
:10510000E800877F8093E8000E94022B8091C5030E
:1051100080937F0308958091C203813A09F0B7CF4D
:105120008091E800877F8093E8008091E80080FF0D
:10513000FCCF80917F03C1CF9FB7F8941092750385
:105140009FBF9091C103943009F048C02091E900BD
:105150002F703091EC00932F917030FD90E8922BDE
:1051600023E02093E9002091EB0020FF34C0209140
:10517000EE0027FF30C020917303222321F02091FD
:10518000E80025FF28C01092730326E03091E80064
:1051900035FF14C08093F1008091E80085FD27C0A1
:1051A0008091E80080FFFCCF8091E8008E778093AB
:1051B000E8009F709093E90080E008953091C1036A
:1051C000343049F43091EB0035FD05C0215041F4F5
:1051D00081E0809373039F709093E9008FEF0895AF
:1051E000EFE9FFE03197F1F700C00000CFCF8FB7B4
:1051F000F89421E0209375038FBFDBCF84B7877FBE
:1052000084BF0FB6F894A895809160008861809360
:105210006000109260000FBE80E890E00FB6F89436
:1052200080936100909361000FBE0E94182608953C
:105230000E94522B0E94AF2BE2EEF0E0808184604E
:10524000808378940E942D2E089589E191E00E9438
:10525000E72408958091C103853071F480911D0386
:1052600080FF04C08EE49CE00E94FE068091C10392
:10527000853019F00E94922608950E946726809139
:10528000BF03882399F30E942526882379F30E947F
:10529000AC290E94C20CEACF08959A014091C8033C
:1052A0005091C9030E9455290895492F552743302D
:1052B000510521F168F44130510509F443C04230F1
:1052C000510509F444C090E080E050E040E026C081
:1052D0004132510551F142325105A9F76330710550
:1052E00090F7FB01EE0FFF1FEA57FD4F4081518100
:1052F0006D577D4FFB01808190E010C09927813070
:10530000910581F0009729F00297E9F6E8E7FCE0C3
:1053100002C0ECE9FCE0849190E0AF01F901518317
:1053200040830895EEE8FCE0F6CF6330710558F64F
:10533000660F771FFB01E457FD4F4081518189E0E3
:1053400090E0ECCF82E190E04BEF5CE0E7CF8BE5C3
:1053500090E040EA5CE0E2CF80E189BD82E189BD76
:1053600009B400FEFDCF8091D8008F7D8093D800D6
:105370008091E00082608093E0008091E00081FDF8
:10538000FCCF0895AF92BF92CF92DF92FF920F931E
:105390001F93CF93DF936C01EB018A010E94212BB5
:1053A000F82E811123C00115110539F0F801808113
:1053B0009181C81BD90BC80ED91EB12CA12C2097E6
:1053C000A9F08091E80085FD22C08091E8008E77E9
:1053D0008093E80001151105A1F0F8018081918109
:1053E000A80EB91EB182A08285E0F82E8F2DDF9124
:1053F000CF911F910F91FF90DF90CF90BF90AF9012
:1054000008950E94212B8823D1F2F82EEFCFF601C8
:1054100081916F018093F1002197FFEFAF1ABF0ACE
:10542000CECFFC018091C8039091C90386179707DE
:10543000A0F06115710529F49091E8009E77909392
:10544000E80090E06115710551F4911108C0809158
:10545000E80082FF34C080E00895BC01F2CF809163
:10546000C1038823C1F18530C1F18091E80083FD3B
:1054700030C08091E80082FDEACF8091E80080FF93
:10548000E1CF8091F3002091F200382F6115710572
:1054900019F02830310558F091E02830310509F035
:1054A00090E02091E8002E772093E800CBCF819107
:1054B0008093F100615071092F5F3F4FE7CF8091DA
:1054C000C103882341F0853041F08091E80083FFDB
:1054D000BECF81E0089582E0089583E00895FC0145
:1054E0008091C8039091C90386179707A0F06115B2
:1054F000710529F48091E8008E778093E80090E0B0
:105500006115710551F4911108C08091E80082FF86
:1055100035C080E00895BC01F2CF8091C10388239B
:10552000C9F18530C9F18091E80083FD31C08091D7
:10553000E80082FDEACF8091E80080FFE1CF809112
:10554000F3002091F200382F6115710519F0283011
:10555000310558F091E02830310509F090E0809154
:10556000E8008E778093E800CBCF84918093F100A0
:105570003196615071092F5F3F4FE6CF8091C10393
:10558000882341F0853041F08091E80083FFBDCF52
:1055900081E0089582E0089583E00895982F973080
:1055A00028F08F708093E90081E008959093E900DE
:1055B000242F762F50E0981731F07091EC00209155
:1055C000ED005091F00021FD02C09F5FE8CF3091C7
:1055D000EB003E7F3093EB003091ED003D7F309348
:1055E000ED003091EB0031603093EB007093EC00F4
:1055F0002093ED005093F0002091EE0027FDE5CFC1
:1056000080E008958091C20387FF13C08091E80075
:1056100082FF06C08091E8008B778093E80004C089
:105620008091C1038111F2CF08958091C103882335
:10563000D9F38091E80080FFF8CF8091E8008E7761
:10564000ECCF2091E4003091E50095E6A90120918E
:10565000EC00822F817020FF06C08091E80080FF5F
:1056600006C080E008952091E80022FD1AC08091D4
:10567000C103882389F0853089F08091EB0085FD96
:105680000FC02091E4003091E50042175307F9F272
:105690009150E1F684E0089582E0089583E0089552
:1056A00081E008950E94C12B0E94C92BE0EEF0E03A
:1056B000808181608083E8EDF0E080818F77808356
:1056C00019BCA7EDB0E08C918E7F8C9380818F7E8A
:1056D00080831092C00308950F931F93CF93DF939D
:1056E0000E94C12B0E94C92BC8EDD0E088818F7722
:1056F000888388818068888388818F7D888319BCAE
:105700001092C1031092BD031092BF031092BE030A
:1057100000EE10E0F80180818B7F808388818160BA
:10572000888342E060E080E00E94CE2AE1EEF0E073
:1057300080818E7F8083E2EEF0E0808181608083D3
:10574000808188608083F80180818E7F808388815A
:1057500080618883DF91CF911F910F910895E8EDCB
:10576000F0E080818F7E8083E7EDF0E080818160D2
:10577000808384E082BF81E08093C0030E946C2B11
:105780000895E8EDF0E080818E7F80831092E20042
:1057900008951092DA001092E10008951F920F927E
:1057A0000FB60F9211242F933F934F935F936F93F4
:1057B0007F938F939F93AF93BF93EF93FF938091CA
:1057C000E10082FF0BC08091E20082FF07C0809160
:1057D000E1008B7F8093E1000E9487278091DA00AF
:1057E00080FF19C08091D80080FF15C08091DA0039
:1057F0008E7F8093DA008091D90080FF96C080E18F
:1058000089BD82E189BD09B400FEFDCF81E08093AE
:10581000C1030E944B278091E10080FF19C0809155
:10582000E20080FF15C08091E2008E7F8093E2004D
:105830008091E20080618093E2008091D8008062D4
:105840008093D80019BC85E08093C1030E946B2728
:105850008091E10084FF2BC08091E20084FF27C08B
:1058600080E189BD82E189BD89B5982F917080FF63
:10587000FBCF8091D8008F7D8093D8008091E1008C
:105880008F7E8093E1008091E2008F7E8093E20022
:105890008091E20081608093E2008091BD038823C3
:1058A00009F449C084E08093C1030E947827809165
:1058B000E10083FF29C08091E20083FF25C0809131
:1058C000E100877F8093E10082E08093C103109222
:1058D000BD038091E1008E7F8093E1008091E20022
:1058E0008E7F8093E2008091E20080618093E200ED
:1058F00042E060E080E00E94CE2A8091F000886063
:105900008093F0000E946427FF91EF91BF91AF91C7
:105910009F918F917F916F915F914F913F912F91C7
:105920000F900FBE0F901F90189519BC1092C103D5
:105930000E945D2770CF8091E30087FD93E09093F4
:10594000C103B3CF1F920F920FB60F9211242F9362
:105950003F934F935F936F937F938F939F93AF93F7
:10596000BF93CF93DF93EF93FF93D091E900DF7064
:105970008091EC00C82FC17080FDC0E81092E90052
:105980008091F000877F8093F00078940E94E62C4D
:105990001092E9008091F00088608093F000CD2B98
:1059A000CF70C093E900FF91EF91DF91CF91BF914C
:1059B000AF919F918F917F916F915F914F913F91A7
:1059C0002F910F900FBE0F901F901895AAE2B0E094
:1059D000ECEEFCE20C94F22E82EC93E02091F100CC
:1059E000FC012193CF01F3E08A3C9F07B9F70E94A5
:1059F000E2278091E80083FF1EC18091C20390914D
:105A0000C3039A3008F017C1E92FF0E0EE56FF4CBF
:105A10000C94AC2E803899F0823809F00CC180913A
:105A2000C6038F70873008F006C18093E90080912B
:105A3000EB0085FB882780F91092E90006C0809171
:105A4000BE039091BF03911182609091E800977F0F
:105A50009093E8008093F1001092F1008091E800AB
:105A60008E77E5C0882309F4D3C0823009F0E3C003
:105A70008091C4038111D6C08091C6038F702FEF2F
:105A8000280F263008F0D7C08093E9002091EB0062
:105A900020FFC8C0933031F48091EB008062809386
:105AA000EB00C0C09091EB0090619093EB0021E07F
:105AB00030E001C0220F8A95EAF72093EA001092A5
:105AC000EA008091EB008860EACF8111B4C01091A8
:105AD000C4031F778091E3008078812B8093E300DB
